{
  "_format": "hh-sol-artifact-1",
  "contractName": "Rilascio",
  "sourceName": "contracts/Rilascio.sol",
  "abi": [
    {
      "anonymous": false,
      "inputs": [
        {
          "indexed": false,
          "internalType": "address",
          "name": "_claimer",
          "type": "address"
        },
        {
          "indexed": true,
          "internalType": "uint256",
          "name": "_lockId",
          "type": "uint256"
        },
        {
          "indexed": false,
          "internalType": "uint256",
          "name": "_sendAmount",
          "type": "uint256"
        }
      ],
      "name": "LogClaim",
      "type": "event"
    },
    {
      "anonymous": false,
      "inputs": [
        {
          "indexed": true,
          "internalType": "uint256",
          "name": "_lockId",
          "type": "uint256"
        },
        {
          "indexed": true,
          "internalType": "uint256",
          "name": "_tokenId",
          "type": "uint256"
        },
        {
          "indexed": true,
          "internalType": "address",
          "name": "_nft",
          "type": "address"
        }
      ],
      "name": "LogContinueLockwithChange",
      "type": "event"
    },
    {
      "anonymous": false,
      "inputs": [
        {
          "indexed": false,
          "internalType": "address",
          "name": "_lenderAddress",
          "type": "address"
        },
        {
          "indexed": true,
          "internalType": "uint256",
          "name": "_lockId",
          "type": "uint256"
        },
        {
          "indexed": true,
          "internalType": "uint256",
          "name": "_tokenId",
          "type": "uint256"
        },
        {
          "indexed": true,
          "internalType": "address",
          "name": "_nft",
          "type": "address"
        }
      ],
      "name": "LogDelete",
      "type": "event"
    },
    {
      "anonymous": false,
      "inputs": [
        {
          "indexed": true,
          "internalType": "uint256",
          "name": "_lockId",
          "type": "uint256"
        },
        {
          "indexed": true,
          "internalType": "uint256",
          "name": "_tokenId",
          "type": "uint256"
        },
        {
          "indexed": true,
          "internalType": "address",
          "name": "_nft",
          "type": "address"
        }
      ],
      "name": "LogDeposit",
      "type": "event"
    },
    {
      "anonymous": false,
      "inputs": [
        {
          "indexed": false,
          "internalType": "address",
          "name": "_borrowerAddress",
          "type": "address"
        },
        {
          "indexed": true,
          "internalType": "uint256",
          "name": "_lockId",
          "type": "uint256"
        },
        {
          "indexed": true,
          "internalType": "uint256",
          "name": "_tokenId",
          "type": "uint256"
        },
        {
          "indexed": true,
          "internalType": "address",
          "name": "_wrappedAddress",
          "type": "address"
        }
      ],
      "name": "LogRentalStart",
      "type": "event"
    },
    {
      "anonymous": false,
      "inputs": [
        {
          "indexed": false,
          "internalType": "address",
          "name": "_withdrawer",
          "type": "address"
        },
        {
          "indexed": true,
          "internalType": "uint256",
          "name": "_lockId",
          "type": "uint256"
        },
        {
          "indexed": true,
          "internalType": "uint256",
          "name": "_tokenId",
          "type": "uint256"
        },
        {
          "indexed": true,
          "internalType": "address",
          "name": "_nft",
          "type": "address"
        }
      ],
      "name": "LogWithdraw",
      "type": "event"
    },
    {
      "anonymous": false,
      "inputs": [
        {
          "indexed": true,
          "internalType": "address",
          "name": "previousOwner",
          "type": "address"
        },
        {
          "indexed": true,
          "internalType": "address",
          "name": "newOwner",
          "type": "address"
        }
      ],
      "name": "OwnershipTransferred",
      "type": "event"
    },
    {
      "inputs": [
        {
          "internalType": "address",
          "name": "paymentTokenAddress_",
          "type": "address"
        },
        {
          "internalType": "bool",
          "name": "_bool",
          "type": "bool"
        }
      ],
      "name": "PaymentTokenWhitelist",
      "outputs": [],
      "stateMutability": "nonpayable",
      "type": "function"
    },
    {
      "inputs": [
        {
          "internalType": "uint256",
          "name": "_lockId",
          "type": "uint256"
        }
      ],
      "name": "cancel",
      "outputs": [],
      "stateMutability": "nonpayable",
      "type": "function"
    },
    {
      "inputs": [
        {
          "internalType": "address",
          "name": "_address",
          "type": "address"
        }
      ],
      "name": "changeAdmin",
      "outputs": [],
      "stateMutability": "nonpayable",
      "type": "function"
    },
    {
      "inputs": [
        {
          "internalType": "uint256",
          "name": "adminRoyalty_",
          "type": "uint256"
        }
      ],
      "name": "changeAdminRoyalty",
      "outputs": [],
      "stateMutability": "nonpayable",
      "type": "function"
    },
    {
      "inputs": [
        {
          "internalType": "uint256",
          "name": "_fee",
          "type": "uint256"
        }
      ],
      "name": "changeMinimumRentalFee",
      "outputs": [],
      "stateMutability": "nonpayable",
      "type": "function"
    },
    {
      "inputs": [
        {
          "internalType": "uint256",
          "name": "_lockId",
          "type": "uint256"
        }
      ],
      "name": "claimNFT",
      "outputs": [],
      "stateMutability": "nonpayable",
      "type": "function"
    },
    {
      "inputs": [
        {
          "internalType": "uint256",
          "name": "_lockId",
          "type": "uint256"
        }
      ],
      "name": "claimYield",
      "outputs": [],
      "stateMutability": "nonpayable",
      "type": "function"
    },
    {
      "inputs": [
        {
          "internalType": "address",
          "name": "original_",
          "type": "address"
        }
      ],
      "name": "deployRilascioW",
      "outputs": [],
      "stateMutability": "nonpayable",
      "type": "function"
    },
    {
      "inputs": [
        {
          "internalType": "uint256",
          "name": "_toLockNftId",
          "type": "uint256"
        },
        {
          "internalType": "uint256",
          "name": "_lockDuration",
          "type": "uint256"
        },
        {
          "internalType": "uint256",
          "name": "_maxRentalDuration",
          "type": "uint256"
        },
        {
          "internalType": "uint256",
          "name": "_dailyRentalPrice",
          "type": "uint256"
        },
        {
          "internalType": "address",
          "name": "_toLockNftContract",
          "type": "address"
        }
      ],
      "name": "deposit",
      "outputs": [],
      "stateMutability": "nonpayable",
      "type": "function"
    },
    {
      "inputs": [],
      "name": "getAdminAddress",
      "outputs": [
        {
          "internalType": "address",
          "name": "",
          "type": "address"
        }
      ],
      "stateMutability": "view",
      "type": "function"
    },
    {
      "inputs": [],
      "name": "getAdminRoyalty",
      "outputs": [
        {
          "internalType": "uint256",
          "name": "",
          "type": "uint256"
        }
      ],
      "stateMutability": "view",
      "type": "function"
    },
    {
      "inputs": [
        {
          "internalType": "uint256",
          "name": "_lockId",
          "type": "uint256"
        }
      ],
      "name": "getClaimAvailability",
      "outputs": [
        {
          "internalType": "bool",
          "name": "",
          "type": "bool"
        }
      ],
      "stateMutability": "view",
      "type": "function"
    },
    {
      "inputs": [
        {
          "internalType": "address",
          "name": "original_",
          "type": "address"
        },
        {
          "internalType": "uint256",
          "name": "_tokenId",
          "type": "uint256"
        }
      ],
      "name": "getCurrentLocks",
      "outputs": [
        {
          "internalType": "uint256",
          "name": "",
          "type": "uint256"
        }
      ],
      "stateMutability": "view",
      "type": "function"
    },
    {
      "inputs": [
        {
          "internalType": "address",
          "name": "_wrappedAddress",
          "type": "address"
        },
        {
          "internalType": "uint256",
          "name": "_tokenId",
          "type": "uint256"
        }
      ],
      "name": "getCurrentRents",
      "outputs": [
        {
          "internalType": "uint256",
          "name": "",
          "type": "uint256"
        }
      ],
      "stateMutability": "view",
      "type": "function"
    },
    {
      "inputs": [
        {
          "internalType": "uint256",
          "name": "_lockId",
          "type": "uint256"
        }
      ],
      "name": "getLockConditions",
      "outputs": [
        {
          "components": [
            {
              "internalType": "uint256",
              "name": "toLockNftId",
              "type": "uint256"
            },
            {
              "internalType": "uint256",
              "name": "lockStartDate",
              "type": "uint256"
            },
            {
              "internalType": "uint256",
              "name": "lockDuration",
              "type": "uint256"
            },
            {
              "internalType": "uint256",
              "name": "maxRentalDuration",
              "type": "uint256"
            },
            {
              "internalType": "uint256",
              "name": "dailyRentalPrice",
              "type": "uint256"
            },
            {
              "internalType": "uint256",
              "name": "amount",
              "type": "uint256"
            },
            {
              "internalType": "address",
              "name": "toLockNftContract",
              "type": "address"
            },
            {
              "internalType": "address",
              "name": "lenderAddress",
              "type": "address"
            },
            {
              "internalType": "address",
              "name": "paymentTokenAddress",
              "type": "address"
            },
            {
              "internalType": "bool",
              "name": "is1155",
              "type": "bool"
            }
          ],
          "internalType": "struct Rilascio.Lock",
          "name": "",
          "type": "tuple"
        }
      ],
      "stateMutability": "view",
      "type": "function"
    },
    {
      "inputs": [
        {
          "internalType": "uint256",
          "name": "_lockId",
          "type": "uint256"
        }
      ],
      "name": "getLockIdToAmount",
      "outputs": [
        {
          "internalType": "uint256",
          "name": "",
          "type": "uint256"
        }
      ],
      "stateMutability": "view",
      "type": "function"
    },
    {
      "inputs": [
        {
          "internalType": "uint256",
          "name": "_lockId",
          "type": "uint256"
        }
      ],
      "name": "getLockIdToRentIds",
      "outputs": [
        {
          "internalType": "uint256[]",
          "name": "",
          "type": "uint256[]"
        }
      ],
      "stateMutability": "view",
      "type": "function"
    },
    {
      "inputs": [],
      "name": "getMinimumRentalDuration",
      "outputs": [
        {
          "internalType": "uint256",
          "name": "",
          "type": "uint256"
        }
      ],
      "stateMutability": "view",
      "type": "function"
    },
    {
      "inputs": [],
      "name": "getMinimumRentalFee",
      "outputs": [
        {
          "internalType": "uint256",
          "name": "",
          "type": "uint256"
        }
      ],
      "stateMutability": "view",
      "type": "function"
    },
    {
      "inputs": [
        {
          "internalType": "address",
          "name": "paymentTokenAddress_",
          "type": "address"
        }
      ],
      "name": "getPaymentToken",
      "outputs": [
        {
          "internalType": "bool",
          "name": "",
          "type": "bool"
        }
      ],
      "stateMutability": "view",
      "type": "function"
    },
    {
      "inputs": [
        {
          "internalType": "uint256",
          "name": "_rentId",
          "type": "uint256"
        }
      ],
      "name": "getRentConditions",
      "outputs": [
        {
          "components": [
            {
              "internalType": "uint256",
              "name": "rentalStartTime",
              "type": "uint256"
            },
            {
              "internalType": "uint256",
              "name": "rentalEndTime",
              "type": "uint256"
            },
            {
              "internalType": "address",
              "name": "borrowerAddress",
              "type": "address"
            }
          ],
          "internalType": "struct Rilascio.Rent",
          "name": "",
          "type": "tuple"
        }
      ],
      "stateMutability": "view",
      "type": "function"
    },
    {
      "inputs": [
        {
          "internalType": "uint256",
          "name": "_rentId",
          "type": "uint256"
        }
      ],
      "name": "getRentIdToLockId",
      "outputs": [
        {
          "internalType": "uint256",
          "name": "",
          "type": "uint256"
        }
      ],
      "stateMutability": "view",
      "type": "function"
    },
    {
      "inputs": [
        {
          "internalType": "uint256",
          "name": "_lockId",
          "type": "uint256"
        }
      ],
      "name": "getRentalAvailability",
      "outputs": [
        {
          "internalType": "bool",
          "name": "",
          "type": "bool"
        }
      ],
      "stateMutability": "view",
      "type": "function"
    },
    {
      "inputs": [],
      "name": "getRilascioO",
      "outputs": [
        {
          "internalType": "address",
          "name": "",
          "type": "address"
        }
      ],
      "stateMutability": "view",
      "type": "function"
    },
    {
      "inputs": [
        {
          "internalType": "address",
          "name": "original_",
          "type": "address"
        }
      ],
      "name": "getRilascioW",
      "outputs": [
        {
          "internalType": "address",
          "name": "",
          "type": "address"
        }
      ],
      "stateMutability": "view",
      "type": "function"
    },
    {
      "inputs": [],
      "name": "getRilascioY",
      "outputs": [
        {
          "internalType": "address",
          "name": "",
          "type": "address"
        }
      ],
      "stateMutability": "view",
      "type": "function"
    },
    {
      "inputs": [
        {
          "internalType": "uint256",
          "name": "_lockId",
          "type": "uint256"
        }
      ],
      "name": "getWithdrawAvailability",
      "outputs": [
        {
          "internalType": "bool",
          "name": "",
          "type": "bool"
        }
      ],
      "stateMutability": "view",
      "type": "function"
    },
    {
      "inputs": [
        {
          "internalType": "uint256",
          "name": "_lockId",
          "type": "uint256"
        }
      ],
      "name": "getWrappedOwner",
      "outputs": [
        {
          "internalType": "address",
          "name": "",
          "type": "address"
        }
      ],
      "stateMutability": "view",
      "type": "function"
    },
    {
      "inputs": [
        {
          "internalType": "address",
          "name": "original_",
          "type": "address"
        }
      ],
      "name": "is1155",
      "outputs": [
        {
          "internalType": "bool",
          "name": "",
          "type": "bool"
        }
      ],
      "stateMutability": "view",
      "type": "function"
    },
    {
      "inputs": [
        {
          "internalType": "address",
          "name": "_operator",
          "type": "address"
        },
        {
          "internalType": "address",
          "name": "_from",
          "type": "address"
        },
        {
          "internalType": "uint256",
          "name": "_tokenId",
          "type": "uint256"
        },
        {
          "internalType": "bytes",
          "name": "_data",
          "type": "bytes"
        }
      ],
      "name": "onERC721Received",
      "outputs": [
        {
          "internalType": "bytes4",
          "name": "",
          "type": "bytes4"
        }
      ],
      "stateMutability": "view",
      "type": "function"
    },
    {
      "inputs": [],
      "name": "owner",
      "outputs": [
        {
          "internalType": "address",
          "name": "",
          "type": "address"
        }
      ],
      "stateMutability": "view",
      "type": "function"
    },
    {
      "inputs": [],
      "name": "renounceOwnership",
      "outputs": [],
      "stateMutability": "nonpayable",
      "type": "function"
    },
    {
      "inputs": [
        {
          "internalType": "uint256",
          "name": "_lockId",
          "type": "uint256"
        },
        {
          "internalType": "uint256",
          "name": "_rentalDurationByDay",
          "type": "uint256"
        }
      ],
      "name": "rent",
      "outputs": [],
      "stateMutability": "payable",
      "type": "function"
    },
    {
      "inputs": [
        {
          "internalType": "address",
          "name": "original_",
          "type": "address"
        },
        {
          "internalType": "address",
          "name": "wrapped_",
          "type": "address"
        }
      ],
      "name": "setRialscioWManual",
      "outputs": [],
      "stateMutability": "nonpayable",
      "type": "function"
    },
    {
      "inputs": [
        {
          "internalType": "address",
          "name": "oNft_",
          "type": "address"
        }
      ],
      "name": "setRilascioO",
      "outputs": [],
      "stateMutability": "nonpayable",
      "type": "function"
    },
    {
      "inputs": [
        {
          "internalType": "address",
          "name": "yNft_",
          "type": "address"
        }
      ],
      "name": "setRilascioY",
      "outputs": [],
      "stateMutability": "nonpayable",
      "type": "function"
    },
    {
      "inputs": [
        {
          "internalType": "address",
          "name": "newOwner",
          "type": "address"
        }
      ],
      "name": "transferOwnership",
      "outputs": [],
      "stateMutability": "nonpayable",
      "type": "function"
    },
    {
      "stateMutability": "payable",
      "type": "receive"
    }
  ],
  "bytecode": "0x6080604052606460025566038d7ea4c6800060035560016004556103e860055534801561002b57600080fd5b506100353361004c565b600180546001600160a01b0319163317905561009c565b600080546001600160a01b038381166001600160a01b0319831681178455604051919092169283917f8be0079c531659141344cd1fd0a4f28419497f9722a3daafe3b4186f6b6457e09190a35050565b61580780620000ac6000396000f3fe608060405260043610620001d45760003560e01c806304811f5a14620001e4578063070d818f146200021e5780631097af1f146200025e5780631336c6311462000283578063150b7a0214620002aa5780632317da2414620002de578063365d0ed7146200030357806340bd2e23146200032857806340e58ee5146200034d5780634b4921d6146200037257806354b19b121462000399578063569e118514620003be5780635a1ca64f14620003e3578063651ebf7b1462000408578063715018a6146200042d578063783a112b14620004455780638da5cb5b146200045c5780638dbc834314620004745780638f28397014620004b15780639c5a914614620004d65780639ca874d814620004fb578063b0f475cd146200054c578063b2e6b9121462000563578063bb8903621462000583578063c1f56ef8146200059a578063c31f4d1c14620005b1578063ccca4e5d14620005d6578063ce498d0e14620005fb578063d15379621462000613578063d7cd28c71462000644578063da2babcc1462000678578063e6fb1ff214620006ac578063ebac967114620006d1578063f2fde38b1462000718578063f3285108146200073d578063f9dbab581462000762578063fe5c873a146200078757600080fd5b36620001df57600080fd5b600080fd5b348015620001f157600080fd5b506200020962000203366004620029a7565b620007ac565b60405190151581526020015b60405180910390f35b3480156200022b57600080fd5b506200024f6200023d366004620029ce565b60009081526010602052604090205490565b60405190815260200162000215565b3480156200026b57600080fd5b50620002096200027d366004620029ce565b6200083e565b3480156200029057600080fd5b50620002a8620002a2366004620029a7565b6200094c565b005b348015620002b757600080fd5b50620002cf620002c9366004620029e8565b6200099b565b60405162000215919062002a8f565b348015620002eb57600080fd5b50620002a8620002fd366004620029ce565b62000a8f565b3480156200031057600080fd5b50620002a86200032236600462002aa4565b62000ac1565b3480156200033557600080fd5b50620002a862000347366004620029ce565b62000e7a565b3480156200035a57600080fd5b50620002a86200036c366004620029ce565b620010e0565b3480156200037f57600080fd5b506200038a62001443565b60405162000215919062002b01565b348015620003a657600080fd5b506200024f620003b836600462002b15565b62001452565b348015620003cb57600080fd5b50620002a8620003dd366004620029a7565b6200147a565b348015620003f057600080fd5b506200038a62000402366004620029a7565b620014c9565b3480156200041557600080fd5b50620002a862000427366004620029ce565b620014e7565b3480156200043a57600080fd5b50620002a862001519565b620002a86200045636600462002b44565b6200155b565b3480156200046957600080fd5b506200038a620019ed565b3480156200048157600080fd5b506200020962000493366004620029a7565b6001600160a01b03166000908152600f602052604090205460ff1690565b348015620004be57600080fd5b50620002a8620004d0366004620029a7565b620019fc565b348015620004e357600080fd5b5062000209620004f5366004620029ce565b62001a4b565b3480156200050857600080fd5b50620005206200051a366004620029ce565b62001aad565b604080518251815260208084015190820152918101516001600160a01b03169082015260600162000215565b3480156200055957600080fd5b506004546200024f565b3480156200057057600080fd5b506001546001600160a01b03166200038a565b3480156200059057600080fd5b506003546200024f565b348015620005a757600080fd5b506002546200024f565b348015620005be57600080fd5b50620002a8620005d036600462002b76565b62001b1d565b348015620005e357600080fd5b506200038a620005f5366004620029ce565b62001b75565b3480156200060857600080fd5b506200038a62001d0c565b3480156200062057600080fd5b506200024f62000632366004620029ce565b60009081526012602052604090205490565b3480156200065157600080fd5b506200066962000663366004620029ce565b62001d1b565b60405162000215919062002bb4565b3480156200068557600080fd5b506200069d62000697366004620029ce565b62001e2b565b60405162000215919062002c45565b348015620006b957600080fd5b5062000209620006cb366004620029ce565b62001e8f565b348015620006de57600080fd5b506200024f620006f036600462002b15565b6001600160a01b03919091166000908152600c60209081526040808320938352929052205490565b3480156200072557600080fd5b50620002a862000737366004620029a7565b62001f6b565b3480156200074a57600080fd5b50620002a86200075c36600462002c8b565b62002014565b3480156200076f57600080fd5b50620002a862000781366004620029a7565b620020d7565b3480156200079457600080fd5b50620002a8620007a6366004620029ce565b62002167565b6040516301ffc9a760e01b81526000906001600160a01b038316906301ffc9a790620007e490636cdb3d1360e11b9060040162002a8f565b60206040518083038186803b158015620007fd57600080fd5b505afa15801562000812573d6000803e3d6000fd5b505050506040513d601f19601f8201168201806040525081019062000838919062002cbe565b92915050565b60006200084a62001d0c565b6001600160a01b0316634f558e79836040518263ffffffff1660e01b81526004016200087891815260200190565b60206040518083038186803b1580156200089157600080fd5b505afa158015620008a6573d6000803e3d6000fd5b505050506040513d601f19601f82011682018060405250810190620008cc919062002cbe565b6200091e5760405162461bcd60e51b815260206004820152601d60248201527f52696c617363696f3a20794e465420646f6573206e6f7420657869737400000060448201526064015b60405180910390fd5b60006200092b8362001d1b565b90508060400151816020015162000943919062002cf4565b42119392505050565b6001546001600160a01b03163314620009795760405162461bcd60e51b8152600401620009159062002d0f565b600680546001600160a01b0319166001600160a01b0392909216919091179055565b604051635a1ca64f60e01b815260009081903090635a1ca64f90620009c590339060040162002b01565b60206040518083038186803b158015620009de57600080fd5b505afa158015620009f3573d6000803e3d6000fd5b505050506040513d601f19601f8201168201806040525081019062000a19919062002d41565b6001600160a01b0316141562000a7d5760405162461bcd60e51b815260206004820152602260248201527f52696c617363696f3a205468697320546f6b656e206e6f7420537570706f7274604482015261195960f21b606482015260840162000915565b50630a85bd0160e11b95945050505050565b6001546001600160a01b0316331462000abc5760405162461bcd60e51b8152600401620009159062002d0f565b600355565b62000ad0600880546001019055565b600062000adc60085490565b90506000851162000b2d5760405162461bcd60e51b815260206004820152601a60248201527952696c617363696f3a204475726174696f6e206973205a65726f60301b604482015260640162000915565b83600010801562000b3e5750848411155b62000b855760405162461bcd60e51b8152602060048201526016602482015275149a5b185cd8da5bce88111d5c8b881a5b9d985b1a5960521b604482015260640162000915565b60035483101562000bd85760405162461bcd60e51b815260206004820152601c60248201527b52696c617363696f3a206c61676572207468616e206d696e696d756d60201b604482015260640162000915565b6001600160a01b03821662000c2c5760405162461bcd60e51b815260206004820152601960248201527852696c617363696f3a2041646472657373206973205a65726f60381b604482015260640162000915565b600062000c3983620014c9565b6001600160a01b0316141562000c925760405162461bcd60e51b815260206004820152601d60248201527f52696c617363696f3a20546f6b656e206e6f7420537570706f72746564000000604482015260640162000915565b6001600160a01b0382166000908152600c6020908152604080832089845282528083208490558051610140810182528981529182019290925290810162000cd98762002493565b815260200162000ce98662002493565b81526020808201869052600160408084018290526001600160a01b038088166060808701829052336080808901829052600060a0808b0182905260c09a8b018290528c8252600a8a52908790208b518155988b01519789019790975589860151600289015591890151600388015590880151600480880191909155948801516005870155958701516006860180549184166001600160a01b031992831617905560e08801516007870180549185169190921617905561010087015160089095018054610120909801511515600160a01b026001600160a81b03199098169590921694909417959095179094559251632142170760e11b815290926342842e0e9262000dfb92909130918c910162002d61565b600060405180830381600087803b15801562000e1657600080fd5b505af115801562000e2b573d6000803e3d6000fd5b5050505062000e3a81620024a4565b816001600160a01b031686827f27c5652d67387e3c42985c524055abcfe437c4cc8d04b5a1ade79404c5249dff60405160405180910390a4505050505050565b6000818152600a60205260408120600281015460019091015462000e9f919062002cf4565b905062000eab62001d0c565b6001600160a01b0316636352211e836040518263ffffffff1660e01b815260040162000ed991815260200190565b60206040518083038186803b15801562000ef257600080fd5b505afa15801562000f07573d6000803e3d6000fd5b505050506040513d601f19601f8201168201806040525081019062000f2d919062002d41565b6001600160a01b0316336001600160a01b03161462000f8e5760405162461bcd60e51b815260206004820152601c60248201527b149a5b185cd8da5bce881b9bdd08121bdb19195c881bd9881e53919560221b604482015260640162000915565b80421162000fef5760405162461bcd60e51b815260206004820152602760248201527f52696c617363696f3a2063616e2065786563757465206166746572204c6f636b6044820152662045787069726560c81b606482015260840162000915565b60008281526010602052604080822080549083905590519091339183156108fc0291849190818181858888f1935050505015801562001032573d6000803e3d6000fd5b506200103d62001d0c565b6001600160a01b03166342966c68846040518263ffffffff1660e01b81526004016200106b91815260200190565b600060405180830381600087803b1580156200108657600080fd5b505af11580156200109b573d6000803e3d6000fd5b50505050827f9a4772cd5c0946aaea956f025c3bd64f5b4464abfaa006dbfc1ffe104b89ef2f3383604051620010d392919062002d85565b60405180910390a2505050565b6000818152600a6020908152604080832081516101408101835281548082526001830154948201949094526002820154928101929092526003810154606083015260048101546080830152600581015460a083015260068101546001600160a01b0390811660c084018190526007830154821660e08501819052600890930154918216610100850152600160a01b90910460ff16151561012084015291936200118862001443565b905060006200119662001d0c565b90508560e001516001600160a01b0316336001600160a01b031614620011fe5760405162461bcd60e51b815260206004820152601c60248201527b2934b630b9b1b4b79d102cb7ba9030b932903737ba102632b73232b960211b604482015260640162000915565b6020860151156200125c5760405162461bcd60e51b815260206004820152602160248201527f52696c617363696f3a2063616e27742063656e63656c2061667465722052656e6044820152601d60fa1b606482015260840162000915565b6001600160a01b0384166000818152600c6020908152604080832089845282528083208390558a8352600a909152808220828155600181018390556002810183905560038101839055600480820184905560058201939093556006810180546001600160a01b0319908116909155600782018054909116905560080180546001600160a81b031916905551632142170760e11b81526342842e0e916200130991309188918b910162002d61565b600060405180830381600087803b1580156200132457600080fd5b505af115801562001339573d6000803e3d6000fd5b5050604051630852cd8d60e31b8152600481018a90526001600160a01b03851692506342966c689150602401600060405180830381600087803b1580156200138057600080fd5b505af115801562001395573d6000803e3d6000fd5b5050604051630852cd8d60e31b8152600481018a90526001600160a01b03841692506342966c689150602401600060405180830381600087803b158015620013dc57600080fd5b505af1158015620013f1573d6000803e3d6000fd5b50505050836001600160a01b031685887fc244b6e29ff9a6816d1a2ca5e1a816b0620bce065239aa5b294951f81f6a151b3360405162001432919062002b01565b60405180910390a450505050505050565b6007546001600160a01b031690565b6001600160a01b03919091166000908152600d60209081526040808320938352929052205490565b6001546001600160a01b03163314620014a75760405162461bcd60e51b8152600401620009159062002d0f565b600780546001600160a01b0319166001600160a01b0392909216919091179055565b6001600160a01b039081166000908152600e60205260409020541690565b6001546001600160a01b03163314620015145760405162461bcd60e51b8152600401620009159062002d0f565b600255565b3362001524620019ed565b6001600160a01b0316146200154d5760405162461bcd60e51b8152600401620009159062002d9e565b620015596000620027ac565b565b6200156a600980546001019055565b60006200157660095490565b6000848152600a60209081526040808320815161014081018352815481526001820154938101939093526002810154918301919091526003810154606083015260048101546080830152600581015460a083015260068101546001600160a01b0390811660c084018190526007830154821660e0850152600890920154908116610100840152600160a01b900460ff161515610120830152929350916200161d90620014c9565b90504260006200162d8662002493565b62001639904262002cf4565b905060008685608001516200164f919062002dd3565b905060006005546002548362001666919062002dd3565b62001672919062002df5565b9050600062001682828462002cf4565b905060008a11620016d55760405162461bcd60e51b815260206004820152601c60248201527b149a5b185cd8da5bce88131bd8dac81259081a5cc81a5b9d985b1a5960221b604482015260640162000915565b600454891015620017345760405162461bcd60e51b815260206004820152602260248201527f52696c617363696f3a204475726174696f6e206d757374206265203120646179604482015261202b60f01b606482015260840162000915565b6200173f8a62001a4b565b620017875760405162461bcd60e51b815260206004820152601760248201527652696c617363696f3a206e6f7420617661696c61626c6560481b604482015260640162000915565b80341015620017cc5760405162461bcd60e51b815260206004820152601060248201526f4e6f7420656e6f7567682066756e647360801b604482015260640162000915565b87600d6000620017e08a60c00151620014c9565b6001600160a01b03168152602080820192909252604090810160009081208b5182528352818120939093558a8352601282528083208d90558c835260118252808320805460018181018355918552838520018c90558d8452600a8352818420429101556010909152812080548392906200185c90849062002cf4565b90915550506040805160608101825286815260208082018781523383850190815260008d8152600b90935293909120915182555160018201559051600290910180546001600160a01b0319166001600160a01b03909216919091179055348110156200190257336108fc620018d2833462002e18565b6040518115909202916000818181858888f19350505050158015620018fb573d6000803e3d6000fd5b5062001931565b60405133903480156108fc02916000818181858888f193505050501580156200192f573d6000803e3d6000fd5b505b86516040516323de665160e01b81526001600160a01b038816916323de6651916200196491309133919060040162002d61565b600060405180830381600087803b1580156200197f57600080fd5b505af115801562001994573d6000803e3d6000fd5b50505050856001600160a01b031687600001518b7f1d283e9dcafd4467f46754882ba3db56843d3732e2e5d7b09691fc4acc3246be33604051620019d9919062002b01565b60405180910390a450505050505050505050565b6000546001600160a01b031690565b6001546001600160a01b0316331462001a295760405162461bcd60e51b8152600401620009159062002d0f565b600180546001600160a01b0319166001600160a01b0392909216919091179055565b6000818152600a6020526040812060060154819062001a73906001600160a01b0316620014c9565b6000848152600a602052604081205491925062001a91838362001452565b905062001a9e8162001aad565b60200151421195945050505050565b62001adb6040518060600160405280600081526020016000815260200160006001600160a01b031681525090565b506000908152600b6020908152604091829020825160608101845281548152600182015492810192909252600201546001600160a01b03169181019190915290565b6001546001600160a01b0316331462001b4a5760405162461bcd60e51b8152600401620009159062002d0f565b6001600160a01b03919091166000908152600f60205260409020805460ff1916911515919091179055565b600062001b8162001d0c565b6001600160a01b0316634f558e79836040518263ffffffff1660e01b815260040162001baf91815260200190565b60206040518083038186803b15801562001bc857600080fd5b505afa15801562001bdd573d6000803e3d6000fd5b505050506040513d601f19601f8201168201806040525081019062001c03919062002cbe565b62001c515760405162461bcd60e51b815260206004820152601d60248201527f52696c617363696f3a20774e465420646f6573206e6f74206578697374000000604482015260640162000915565b6000828152600a602052604090206006015462001c77906001600160a01b0316620014c9565b6000838152600a6020526040908190205490516331a9108f60e11b81526001600160a01b039290921691636352211e9162001cb89160040190815260200190565b60206040518083038186803b15801562001cd157600080fd5b505afa15801562001ce6573d6000803e3d6000fd5b505050506040513d601f19601f8201168201806040525081019062000838919062002d41565b6006546001600160a01b031690565b62001d8f60405180610140016040528060008152602001600081526020016000815260200160008152602001600081526020016000815260200160006001600160a01b0316815260200160006001600160a01b0316815260200160006001600160a01b031681526020016000151581525090565b506000908152600a6020908152604091829020825161014081018452815481526001820154928101929092526002810154928201929092526003820154606082015260048201546080820152600582015460a082015260068201546001600160a01b0390811660c08301526007830154811660e0830152600890920154918216610100820152600160a01b90910460ff16151561012082015290565b60008181526011602090815260409182902080548351818402810184019094528084526060939283018282801562001e8357602002820191906000526020600020905b81548152602001906001019080831162001e6e575b50505050509050919050565b600062001e9b62001443565b6001600160a01b0316634f558e79836040518263ffffffff1660e01b815260040162001ec991815260200190565b60206040518083038186803b15801562001ee257600080fd5b505afa15801562001ef7573d6000803e3d6000fd5b505050506040513d601f19601f8201168201806040525081019062001f1d919062002cbe565b6200091e5760405162461bcd60e51b815260206004820152601d60248201527f52696c617363696f3a206f4e465420646f6573206e6f74206578697374000000604482015260640162000915565b3362001f76620019ed565b6001600160a01b03161462001f9f5760405162461bcd60e51b8152600401620009159062002d9e565b6001600160a01b038116620020065760405162461bcd60e51b815260206004820152602660248201527f4f776e61626c653a206e6577206f776e657220697320746865207a65726f206160448201526564647265737360d01b606482015260840162000915565b6200201181620027ac565b50565b6001546001600160a01b03163314620020415760405162461bcd60e51b8152600401620009159062002d0f565b6001600160a01b038216158015906200206257506001600160a01b03811615155b620020a95760405162461bcd60e51b815260206004820152601660248201527524b73b30b634b21021b7b73a3930b1ba39903830b4b960511b604482015260640162000915565b6001600160a01b039182166000908152600e6020526040902080546001600160a01b03191691909216179055565b6001546001600160a01b03163314620021045760405162461bcd60e51b8152600401620009159062002d0f565b60006200211182620014c9565b6001600160a01b0316146200215c5760405162461bcd60e51b815260206004820152601060248201526f105b1c9958591e4819195c1b1bde595960821b604482015260640162000915565b620020a981620027fc565b6000818152600a602090815260408083208151610140810183528154808252600183015494820185905260028301549382018490526003830154606083015260048301546080830152600583015460a083015260068301546001600160a01b0390811660c084018190526007850154821660e0850152600890940154908116610100840152600160a01b900460ff1615156101208301529094919390926200220f9162002cf4565b90506200221b62001443565b6001600160a01b0316636352211e866040518263ffffffff1660e01b81526004016200224991815260200190565b60206040518083038186803b1580156200226257600080fd5b505afa15801562002277573d6000803e3d6000fd5b505050506040513d601f19601f820116820180604052508101906200229d919062002d41565b6001600160a01b0316336001600160a01b031614620023115760405162461bcd60e51b815260206004820152602960248201527f52696c617363696f3a20596f7520617265206e6f7420486f6c646572206f66206044820152681d1a1a5cc81bd3919560ba1b606482015260840162000915565b804211620023755760405162461bcd60e51b815260206004820152602a60248201527f57697468647261772063616e2065786563757465206166746572204c6f636b206044820152694578706972654461746560b01b606482015260840162000915565b604051632142170760e11b81526001600160a01b038416906342842e0e90620023a79030903390879060040162002d61565b600060405180830381600087803b158015620023c257600080fd5b505af1158015620023d7573d6000803e3d6000fd5b50505050620023e562001443565b6001600160a01b03166342966c68866040518263ffffffff1660e01b81526004016200241391815260200190565b600060405180830381600087803b1580156200242e57600080fd5b505af115801562002443573d6000803e3d6000fd5b50505050826001600160a01b031682867fc50128224a7c79100d2299baf7da745ffbe7f42ffdb37aa69e1cda7b3c7394ea3360405162002484919062002b01565b60405180910390a45050505050565b600062000838826201518062002dd3565b6000620024b062001443565b90506000620024be62001d0c565b6000848152600a6020908152604091829020825161014081018452815481526001820154928101929092526002810154928201929092526003820154606082015260048201546080820152600582015460a082015260068201546001600160a01b0390811660c08301526007830154811660e08301819052600890930154908116610100830152600160a01b900460ff16151561012082015291925033146200259c5760405162461bcd60e51b815260206004820152600f60248201526e3cb7bab9103737ba103632b73232b960891b604482015260640162000915565b604051634f558e7960e01b8152600481018590526001600160a01b03841690634f558e799060240160206040518083038186803b158015620025dd57600080fd5b505afa158015620025f2573d6000803e3d6000fd5b505050506040513d601f19601f8201168201806040525081019062002618919062002cbe565b1580156200269f5750604051634f558e7960e01b8152600481018590526001600160a01b03831690634f558e799060240160206040518083038186803b1580156200266257600080fd5b505afa15801562002677573d6000803e3d6000fd5b505050506040513d601f19601f820116820180604052508101906200269d919062002cbe565b155b620026de5760405162461bcd60e51b815260206004820152600e60248201526d185b1c9958591e481b5a5b9d195960921b604482015260640162000915565b6040516340c10f1960e01b81526001600160a01b038416906340c10f19906200270e903390889060040162002d85565b600060405180830381600087803b1580156200272957600080fd5b505af11580156200273e573d6000803e3d6000fd5b50506040516340c10f1960e01b81526001600160a01b03851692506340c10f19915062002772903390889060040162002d85565b600060405180830381600087803b1580156200278d57600080fd5b505af1158015620027a2573d6000803e3d6000fd5b5050505050505050565b600080546001600160a01b038381166001600160a01b0319831681178455604051919092169283917f8be0079c531659141344cd1fd0a4f28419497f9722a3daafe3b4186f6b6457e09190a35050565b6000620028098262002853565b6200281483620028f6565b604051620028229062002983565b6200282f92919062002e93565b604051809103906000f0801580156200284c573d6000803e3d6000fd5b5092915050565b6060816001600160a01b03166306fdde036040518163ffffffff1660e01b815260040160006040518083038186803b1580156200288f57600080fd5b505afa158015620028a4573d6000803e3d6000fd5b505050506040513d6000823e601f3d908101601f19168201604052620028ce919081019062002edb565b604051602001620028e0919062002f93565b6040516020818303038152906040529050919050565b6060816001600160a01b03166395d89b416040518163ffffffff1660e01b815260040160006040518083038186803b1580156200293257600080fd5b505afa15801562002947573d6000803e3d6000fd5b505050506040513d6000823e601f3d908101601f1916820160405262002971919081019062002edb565b604051602001620028e0919062002fc5565b6127e18062002ff183390190565b6001600160a01b03811681146200201157600080fd5b600060208284031215620029ba57600080fd5b8135620029c78162002991565b9392505050565b600060208284031215620029e157600080fd5b5035919050565b60008060008060006080868803121562002a0157600080fd5b853562002a0e8162002991565b9450602086013562002a208162002991565b93506040860135925060608601356001600160401b038082111562002a4457600080fd5b818801915088601f83011262002a5957600080fd5b81358181111562002a6957600080fd5b89602082850101111562002a7c57600080fd5b9699959850939650602001949392505050565b6001600160e01b031991909116815260200190565b600080600080600060a0868803121562002abd57600080fd5b85359450602086013593506040860135925060608601359150608086013562002ae68162002991565b809150509295509295909350565b6001600160a01b03169052565b6001600160a01b0391909116815260200190565b6000806040838503121562002b2957600080fd5b823562002b368162002991565b946020939093013593505050565b6000806040838503121562002b5857600080fd5b50508035926020909101359150565b80151581146200201157600080fd5b6000806040838503121562002b8a57600080fd5b823562002b978162002991565b9150602083013562002ba98162002b67565b809150509250929050565b600061014082019050825182526020830151602083015260408301516040830152606083015160608301526080830151608083015260a083015160a083015260c083015162002c0760c084018262002af4565b5060e083015162002c1c60e084018262002af4565b506101008084015162002c328285018262002af4565b5050610120928301511515919092015290565b6020808252825182820181905260009190848201906040850190845b8181101562002c7f5783518352928401929184019160010162002c61565b50909695505050505050565b6000806040838503121562002c9f57600080fd5b823562002cac8162002991565b9150602083013562002ba98162002991565b60006020828403121562002cd157600080fd5b8151620029c78162002b67565b634e487b7160e01b600052601160045260246000fd5b6000821982111562002d0a5762002d0a62002cde565b500190565b60208082526018908201527737b7363c9037bbb732b91034b99030b63637bbb0b731b29760411b604082015260600190565b60006020828403121562002d5457600080fd5b8151620029c78162002991565b6001600160a01b039384168152919092166020820152604081019190915260600190565b6001600160a01b03929092168252602082015260400190565b6020808252818101527f4f776e61626c653a2063616c6c6572206973206e6f7420746865206f776e6572604082015260600190565b600081600019048311821515161562002df05762002df062002cde565b500290565b60008262002e1357634e487b7160e01b600052601260045260246000fd5b500490565b60008282101562002e2d5762002e2d62002cde565b500390565b60005b8381101562002e4f57818101518382015260200162002e35565b8381111562002e5f576000848401525b50505050565b6000815180845262002e7f81602086016020860162002e32565b601f01601f19169290920160200192915050565b60408152600062002ea8604083018562002e65565b828103602084015262002ebc818562002e65565b95945050505050565b634e487b7160e01b600052604160045260246000fd5b60006020828403121562002eee57600080fd5b81516001600160401b038082111562002f0657600080fd5b818401915084601f83011262002f1b57600080fd5b81518181111562002f305762002f3062002ec5565b604051601f8201601f19908116603f0116810190838211818310171562002f5b5762002f5b62002ec5565b8160405282815287602084870101111562002f7557600080fd5b62002f8883602083016020880162002e32565b979650505050505050565b6752656e746146692d60c01b81526000825162002fb881600885016020870162002e32565b9190910160080192915050565b603960f91b81526000825162002fe381600185016020870162002e32565b919091016001019291505056fe6080604052606460095566038d7ea4c68000600a556001600b556103e8600c553480156200002c57600080fd5b50604051620027e1380380620027e18339810160408190526200004f916200028e565b815182908290620000689060009060208501906200011b565b5080516200007e9060019060208401906200011b565b5050506200009b62000095620000c560201b60201c565b620000c9565b505060088054336001600160a01b03199182168117909255600f8054909116909117905562000335565b3390565b600780546001600160a01b038381166001600160a01b0319831681179093556040519116919082907f8be0079c531659141344cd1fd0a4f28419497f9722a3daafe3b4186f6b6457e090600090a35050565b8280546200012990620002f8565b90600052602060002090601f0160209004810192826200014d576000855562000198565b82601f106200016857805160ff191683800117855562000198565b8280016001018555821562000198579182015b82811115620001985782518255916020019190600101906200017b565b50620001a6929150620001aa565b5090565b5b80821115620001a65760008155600101620001ab565b634e487b7160e01b600052604160045260246000fd5b600082601f830112620001e957600080fd5b81516001600160401b0380821115620002065762000206620001c1565b604051601f8301601f19908116603f01168101908282118183101715620002315762000231620001c1565b816040528381526020925086838588010111156200024e57600080fd5b600091505b8382101562000272578582018301518183018401529082019062000253565b83821115620002845760008385830101525b9695505050505050565b60008060408385031215620002a257600080fd5b82516001600160401b0380821115620002ba57600080fd5b620002c886838701620001d7565b93506020850151915080821115620002df57600080fd5b50620002ee85828601620001d7565b9150509250929050565b600181811c908216806200030d57607f821691505b602082108114156200032f57634e487b7160e01b600052602260045260246000fd5b50919050565b61249c80620003456000396000f3fe608060405234801561001057600080fd5b506004361061016a5760003560e01c806301ffc9a71461016f57806306fdde0314610197578063081812fc146101ac578063095ea7b3146101cc5780631336c631146101e1578063150b7a02146101f45780632317da241461022057806323b872dd1461023357806323de66511461024657806342842e0e1461025957806342966c681461026c5780634b4921d61461027f578063569e1185146102905780636352211e146102a3578063651ebf7b146102b657806370a08231146102c9578063715018a6146102ea5780638da5cb5b146102f25780638f283970146102fa57806395d89b411461030d578063a22cb46514610315578063b0f475cd14610328578063b2e6b91214610330578063b88d4fde14610341578063bb89036214610354578063c1f56ef81461035c578063c87b56dd14610364578063ce498d0e14610377578063e985e9c514610388578063f2fde38b1461039b575b600080fd5b61018261017d366004611be0565b6103ae565b60405190151581526020015b60405180910390f35b61019f610400565b60405161018e9190611c5c565b6101bf6101ba366004611c6f565b610492565b60405161018e9190611c88565b6101df6101da366004611cb1565b61051f565b005b6101df6101ef366004611cdd565b610630565b610207610202366004611cfa565b61067c565b6040516001600160e01b0319909116815260200161018e565b6101df61022e366004611c6f565b610768565b6101df610241366004611d98565b610797565b6101df610254366004611d98565b6107c8565b6101df610267366004611d98565b610826565b6101df61027a366004611c6f565b610841565b600e546001600160a01b03166101bf565b6101df61029e366004611cdd565b610877565b6101bf6102b1366004611c6f565b6108c3565b6101df6102c4366004611c6f565b610a76565b6102dc6102d7366004611cdd565b610aa5565b60405190815260200161018e565b6101df610b2c565b6101bf610b67565b6101df610308366004611cdd565b610b76565b61019f610bc2565b6101df610323366004611de7565b610bd1565b600b546102dc565b6008546001600160a01b03166101bf565b6101df61034f366004611eb6565b610be0565b600a546102dc565b6009546102dc565b61019f610372366004611c6f565b610c18565b600d546001600160a01b03166101bf565b610182610396366004611f64565b611076565b6101df6103a9366004611cdd565b6110a4565b60006001600160e01b031982166380ac58cd60e01b14806103df57506001600160e01b03198216635b5e139f60e01b145b806103fa57506301ffc9a760e01b6001600160e01b03198316145b92915050565b60606000805461040f90611f92565b80601f016020809104026020016040519081016040528092919081815260200182805461043b90611f92565b80156104885780601f1061045d57610100808354040283529160200191610488565b820191906000526020600020905b81548152906001019060200180831161046b57829003601f168201915b5050505050905090565b600061049d82611141565b6105035760405162461bcd60e51b815260206004820152602c60248201527f4552433732313a20617070726f76656420717565727920666f72206e6f6e657860448201526b34b9ba32b73a103a37b5b2b760a11b60648201526084015b60405180910390fd5b506000908152600460205260409020546001600160a01b031690565b600061052a82611343565b9050806001600160a01b0316836001600160a01b031614156105985760405162461bcd60e51b815260206004820152602160248201527f4552433732313a20617070726f76616c20746f2063757272656e74206f776e656044820152603960f91b60648201526084016104fa565b336001600160a01b03821614806105b457506105b48133611076565b6106215760405162461bcd60e51b815260206004820152603860248201527f4552433732313a20617070726f76652063616c6c6572206973206e6f74206f776044820152771b995c881b9bdc88185c1c1c9bdd995908199bdc88185b1b60421b60648201526084016104fa565b61062b83836113ba565b505050565b6008546001600160a01b0316331461065a5760405162461bcd60e51b81526004016104fa90611fcd565b600d80546001600160a01b0319166001600160a01b0392909216919091179055565b604051635a1ca64f60e01b815260009081903090635a1ca64f906106a4903390600401611c88565b60206040518083038186803b1580156106bc57600080fd5b505afa1580156106d0573d6000803e3d6000fd5b505050506040513d601f19601f820116820180604052508101906106f4919061200f565b6001600160a01b031614156107565760405162461bcd60e51b815260206004820152602260248201527f52696c617363696f3a205468697320546f6b656e206e6f7420537570706f7274604482015261195960f21b60648201526084016104fa565b50630a85bd0160e11b95945050505050565b6008546001600160a01b031633146107925760405162461bcd60e51b81526004016104fa90611fcd565b600a55565b6107a13382611428565b6107bd5760405162461bcd60e51b81526004016104fa9061202c565b61062b8383836114f2565b600f546001600160a01b031633146107f25760405162461bcd60e51b81526004016104fa9061207d565b80826001600160a01b0316846001600160a01b031660008051602061244783398151915260405160405180910390a4505050565b61062b83838360405180602001604052806000815250610be0565b600f546001600160a01b0316331461086b5760405162461bcd60e51b81526004016104fa9061207d565b61087481611579565b50565b6008546001600160a01b031633146108a15760405162461bcd60e51b81526004016104fa90611fcd565b600e80546001600160a01b0319166001600160a01b0392909216919091179055565b600f54604051632a58cd8960e11b815260009182916001600160a01b03909116906354b19b12906108fa90309087906004016120b2565b60206040518083038186803b15801561091257600080fd5b505afa158015610926573d6000803e3d6000fd5b505050506040513d601f19601f8201168201806040525081019061094a91906120cb565b600f546040516313950e9b60e31b8152600481018390529192506000916001600160a01b0390911690639ca874d89060240160606040518083038186803b15801561099457600080fd5b505afa1580156109a8573d6000803e3d6000fd5b505050506040513d601f19601f820116820180604052508101906109cc91906120e4565b60200151905042811115610a6257600f546040516313950e9b60e31b8152600481018490526001600160a01b0390911690639ca874d89060240160606040518083038186803b158015610a1e57600080fd5b505afa158015610a32573d6000803e3d6000fd5b505050506040513d601f19601f82011682018060405250810190610a5691906120e4565b60400151949350505050565b5050600f546001600160a01b031692915050565b6008546001600160a01b03163314610aa05760405162461bcd60e51b81526004016104fa90611fcd565b600955565b60006001600160a01b038216610b105760405162461bcd60e51b815260206004820152602a60248201527f4552433732313a2062616c616e636520717565727920666f7220746865207a65604482015269726f206164647265737360b01b60648201526084016104fa565b506001600160a01b031660009081526003602052604090205490565b33610b35610b67565b6001600160a01b031614610b5b5760405162461bcd60e51b81526004016104fa90612145565b610b6560006115b9565b565b6007546001600160a01b031690565b6008546001600160a01b03163314610ba05760405162461bcd60e51b81526004016104fa90611fcd565b600880546001600160a01b0319166001600160a01b0392909216919091179055565b60606001805461040f90611f92565b610bdc33838361160b565b5050565b610bea3383611428565b610c065760405162461bcd60e51b81526004016104fa9061202c565b610c12848484846116d6565b50505050565b600f54604051632a58cd8960e11b81526060916000916001600160a01b03909116906354b19b1290610c5090309087906004016120b2565b60206040518083038186803b158015610c6857600080fd5b505afa158015610c7c573d6000803e3d6000fd5b505050506040513d601f19601f82011682018060405250810190610ca091906120cb565b600f546040516313950e9b60e31b8152600481018390529192506000916001600160a01b0390911690639ca874d89060240160606040518083038186803b158015610cea57600080fd5b505afa158015610cfe573d6000803e3d6000fd5b505050506040513d601f19601f82011682018060405250810190610d2291906120e4565b60200151600f546040516368a9bcb160e11b8152600481018590529192506000916001600160a01b039091169063d15379629060240160206040518083038186803b158015610d7057600080fd5b505afa158015610d84573d6000803e3d6000fd5b505050506040513d601f19601f82011682018060405250810190610da891906120cb565b600f5460405163d7cd28c760e01b8152600481018390529192506000916001600160a01b039091169063d7cd28c7906024016101406040518083038186803b158015610df357600080fd5b505afa158015610e07573d6000803e3d6000fd5b505050506040513d601f19601f82011682018060405250810190610e2b9190612185565b9050610e3686611141565b610e9a5760405162461bcd60e51b815260206004820152602f60248201527f4552433732314d657461646174613a2055524920717565727920666f72206e6f60448201526e3732bc34b9ba32b73a103a37b5b2b760891b60648201526084016104fa565b42831115610f2e5760c081015160405163c87b56dd60e01b8152600481018890526001600160a01b039091169063c87b56dd9060240160006040518083038186803b158015610ee857600080fd5b505afa158015610efc573d6000803e3d6000fd5b505050506040513d6000823e601f3d908101601f19168201604052610f249190810190612223565b9695505050505050565b600060405160200161102e907f7b226e616d65223a2022777261707065644e4654202d2052696c617363696f2281527f2c20226465736372697074696f6e223a2022577261707065644e46542069732060208201527f77726170706564206f726967696e616c204e4654206465706f7369746564206260408201527f79204c656e64657220696e20612052696c617363696f20457363726f772e205760608201527f68656e2072656e74616c2068617320626567616e2c2074686973204e4654207760808201527f696c6c206c696e6b20746f204f726967696e616c204e4654206d65746164617460a082015263612e227d60e01b60c082015260c40190565b6040516020818303038152906040529050600061104a82611709565b60405160200161105a9190612299565b60408051601f1981840301815291905298975050505050505050565b6001600160a01b03918216600090815260056020908152604080832093909416825291909152205460ff1690565b336110ad610b67565b6001600160a01b0316146110d35760405162461bcd60e51b81526004016104fa90612145565b6001600160a01b0381166111385760405162461bcd60e51b815260206004820152602660248201527f4f776e61626c653a206e6577206f776e657220697320746865207a65726f206160448201526564647265737360d01b60648201526084016104fa565b610874816115b9565b600f54604051632a58cd8960e11b815260009182916001600160a01b039091169063d7cd28c790829063d15379629082906354b19b12906111889030908b906004016120b2565b60206040518083038186803b1580156111a057600080fd5b505afa1580156111b4573d6000803e3d6000fd5b505050506040513d601f19601f820116820180604052508101906111d891906120cb565b6040518263ffffffff1660e01b81526004016111f691815260200190565b60206040518083038186803b15801561120e57600080fd5b505afa158015611222573d6000803e3d6000fd5b505050506040513d601f19601f8201168201806040525081019061124691906120cb565b6040518263ffffffff1660e01b815260040161126491815260200190565b6101406040518083038186803b15801561127d57600080fd5b505afa158015611291573d6000803e3d6000fd5b505050506040513d601f19601f820116820180604052508101906112b59190612185565b60c001516040516331a9108f60e11b8152600481018590526001600160a01b0390911690636352211e9060240160206040518083038186803b1580156112fa57600080fd5b505afa15801561130e573d6000803e3d6000fd5b505050506040513d601f19601f82011682018060405250810190611332919061200f565b6001600160a01b0316141592915050565b6000818152600260205260408120546001600160a01b0316806103fa5760405162461bcd60e51b815260206004820152602960248201527f4552433732313a206f776e657220717565727920666f72206e6f6e657869737460448201526832b73a103a37b5b2b760b91b60648201526084016104fa565b600081815260046020526040902080546001600160a01b0319166001600160a01b03841690811790915581906113ef82611343565b6001600160a01b03167f8c5be1e5ebec7d5bd14f71427d1e84f3dd0314c0f7b2291e5b200ac8c7c3b92560405160405180910390a45050565b600061143382611141565b6114945760405162461bcd60e51b815260206004820152602c60248201527f4552433732313a206f70657261746f7220717565727920666f72206e6f6e657860448201526b34b9ba32b73a103a37b5b2b760a11b60648201526084016104fa565b600061149f83611343565b9050806001600160a01b0316846001600160a01b031614806114c657506114c68185611076565b806114ea5750836001600160a01b03166114df84610492565b6001600160a01b0316145b949350505050565b600f546001600160a01b0384811691161461156e5760405162461bcd60e51b815260206004820152603660248201527f57726170706564204e46542043414e205472616e73666572206173205032432e6044820152751027379039bab83837b93a39903bb4ba34102819281760511b60648201526084016104fa565b61062b83838361185c565b611582816119e6565b6000818152600660205260409020805461159b90611f92565b15905061087457600081815260066020526040812061087491611b7c565b600780546001600160a01b038381166001600160a01b0319831681179093556040519116919082907f8be0079c531659141344cd1fd0a4f28419497f9722a3daafe3b4186f6b6457e090600090a35050565b816001600160a01b0316836001600160a01b031614156116695760405162461bcd60e51b815260206004820152601960248201527822a9219b99189d1030b8383937bb32903a379031b0b63632b960391b60448201526064016104fa565b6001600160a01b03838116600081815260056020908152604080832094871680845294825291829020805460ff191686151590811790915591519182527f17307eab39ab6107e8899845ad3d59bd9653f200f220920489ca2b5937696c31910160405180910390a3505050565b6116e18484846114f2565b6116ed84848484611a6f565b610c125760405162461bcd60e51b81526004016104fa906122de565b606081516000141561172957505060408051602081019091526000815290565b600060405180606001604052806040815260200161240760409139905060006003845160026117589190612346565b611762919061235e565b61176d906004612380565b6001600160401b0381111561178457611784611e20565b6040519080825280601f01601f1916602001820160405280156117ae576020820181803683370190505b509050600182016020820185865187015b8082101561181a576003820191508151603f8160121c168501518453600184019350603f81600c1c168501518453600184019350603f8160061c168501518453600184019350603f81168501518453506001830192506117bf565b5050600386510660018114611836576002811461184957611851565b603d6001830353603d6002830353611851565b603d60018303535b509195945050505050565b826001600160a01b031661186f82611343565b6001600160a01b0316146118d35760405162461bcd60e51b815260206004820152602560248201527f4552433732313a207472616e736665722066726f6d20696e636f72726563742060448201526437bbb732b960d91b60648201526084016104fa565b6001600160a01b0382166119355760405162461bcd60e51b8152602060048201526024808201527f4552433732313a207472616e7366657220746f20746865207a65726f206164646044820152637265737360e01b60648201526084016104fa565b6119406000826113ba565b6001600160a01b038316600090815260036020526040812080546001929061196990849061239f565b90915550506001600160a01b0382166000908152600360205260408120805460019290611997908490612346565b909155505060008181526002602052604080822080546001600160a01b0319166001600160a01b03868116918217909255915184939187169160008051602061244783398151915291a4505050565b60006119f182611343565b90506119fe6000836113ba565b6001600160a01b0381166000908152600360205260408120805460019290611a2790849061239f565b909155505060008281526002602052604080822080546001600160a01b0319169055518391906001600160a01b03841690600080516020612447833981519152908390a45050565b60006001600160a01b0384163b15611b7157604051630a85bd0160e11b81526001600160a01b0385169063150b7a0290611ab39033908990889088906004016123b6565b602060405180830381600087803b158015611acd57600080fd5b505af1925050508015611afd575060408051601f3d908101601f19168201909252611afa918101906123e9565b60015b611b57573d808015611b2b576040519150601f19603f3d011682016040523d82523d6000602084013e611b30565b606091505b508051611b4f5760405162461bcd60e51b81526004016104fa906122de565b805181602001fd5b6001600160e01b031916630a85bd0160e11b1490506114ea565b506001949350505050565b508054611b8890611f92565b6000825580601f10611b98575050565b601f01602090049060005260206000209081019061087491905b80821115611bc65760008155600101611bb2565b5090565b6001600160e01b03198116811461087457600080fd5b600060208284031215611bf257600080fd5b8135611bfd81611bca565b9392505050565b60005b83811015611c1f578181015183820152602001611c07565b83811115610c125750506000910152565b60008151808452611c48816020860160208601611c04565b601f01601f19169290920160200192915050565b602081526000611bfd6020830184611c30565b600060208284031215611c8157600080fd5b5035919050565b6001600160a01b0391909116815260200190565b6001600160a01b038116811461087457600080fd5b60008060408385031215611cc457600080fd5b8235611ccf81611c9c565b946020939093013593505050565b600060208284031215611cef57600080fd5b8135611bfd81611c9c565b600080600080600060808688031215611d1257600080fd5b8535611d1d81611c9c565b94506020860135611d2d81611c9c565b93506040860135925060608601356001600160401b0380821115611d5057600080fd5b818801915088601f830112611d6457600080fd5b813581811115611d7357600080fd5b896020828501011115611d8557600080fd5b9699959850939650602001949392505050565b600080600060608486031215611dad57600080fd5b8335611db881611c9c565b92506020840135611dc881611c9c565b929592945050506040919091013590565b801515811461087457600080fd5b60008060408385031215611dfa57600080fd5b8235611e0581611c9c565b91506020830135611e1581611dd9565b809150509250929050565b634e487b7160e01b600052604160045260246000fd5b60405161014081016001600160401b0381118282101715611e5957611e59611e20565b60405290565b604051601f8201601f191681016001600160401b0381118282101715611e8757611e87611e20565b604052919050565b60006001600160401b03821115611ea857611ea8611e20565b50601f01601f191660200190565b60008060008060808587031215611ecc57600080fd5b8435611ed781611c9c565b93506020850135611ee781611c9c565b92506040850135915060608501356001600160401b03811115611f0957600080fd5b8501601f81018713611f1a57600080fd5b8035611f2d611f2882611e8f565b611e5f565b818152886020838501011115611f4257600080fd5b8160208401602083013760006020838301015280935050505092959194509250565b60008060408385031215611f7757600080fd5b8235611f8281611c9c565b91506020830135611e1581611c9c565b600181811c90821680611fa657607f821691505b60208210811415611fc757634e487b7160e01b600052602260045260246000fd5b50919050565b60208082526018908201527737b7363c9037bbb732b91034b99030b63637bbb0b731b29760411b604082015260600190565b805161200a81611c9c565b919050565b60006020828403121561202157600080fd5b8151611bfd81611c9c565b60208082526031908201527f4552433732313a207472616e736665722063616c6c6572206973206e6f74206f6040820152701ddb995c881b9bdc88185c1c1c9bdd9959607a1b606082015260800190565b6020808252601b908201527a37b7363c903934b630b9b1b4b79034b99030b63637bbb0b731b29760291b604082015260600190565b6001600160a01b03929092168252602082015260400190565b6000602082840312156120dd57600080fd5b5051919050565b6000606082840312156120f657600080fd5b604051606081016001600160401b038111828210171561211857612118611e20565b80604052508251815260208301516020820152604083015161213981611c9c565b60408201529392505050565b6020808252818101527f4f776e61626c653a2063616c6c6572206973206e6f7420746865206f776e6572604082015260600190565b805161200a81611dd9565b6000610140828403121561219857600080fd5b6121a0611e36565b825181526020830151602082015260408301516040820152606083015160608201526080830151608082015260a083015160a08201526121e260c08401611fff565b60c08201526121f360e08401611fff565b60e0820152610100612206818501611fff565b9082015261012061221884820161217a565b908201529392505050565b60006020828403121561223557600080fd5b81516001600160401b0381111561224b57600080fd5b8201601f8101841361225c57600080fd5b805161226a611f2882611e8f565b81815285602083850101111561227f57600080fd5b612290826020830160208601611c04565b95945050505050565b7f646174613a6170706c69636174696f6e2f6a736f6e3b6261736536342c0000008152600082516122d181601d850160208701611c04565b91909101601d0192915050565b60208082526032908201527f4552433732313a207472616e7366657220746f206e6f6e20455243373231526560408201527131b2b4bb32b91034b6b83632b6b2b73a32b960711b606082015260800190565b634e487b7160e01b600052601160045260246000fd5b6000821982111561235957612359612330565b500190565b60008261237b57634e487b7160e01b600052601260045260246000fd5b500490565b600081600019048311821515161561239a5761239a612330565b500290565b6000828210156123b1576123b1612330565b500390565b6001600160a01b0385811682528416602082015260408101839052608060608201819052600090610f2490830184611c30565b6000602082840312156123fb57600080fd5b8151611bfd81611bca56fe4142434445464748494a4b4c4d4e4f505152535455565758595a6162636465666768696a6b6c6d6e6f707172737475767778797a303132333435363738392b2fddf252ad1be2c89b69c2b068fc378daa952ba7f163c4a11628f55a4df523b3efa2646970667358221220fa6885391eb11ac5414430d612a0c7ad6b186c1ef79292b0d8215cb1aefa4bd964736f6c63430008090033a2646970667358221220ca7681d9d1bafa475d2f68890d3e9e5955499060168f5b7ba7a9f6259ebdb94f64736f6c63430008090033",
  "linkReferences": {},
  "deployedLinkReferences": {}
}