{
  "_format": "hh-sol-artifact-1",
  "contractName": "RilascioAdmin",
  "sourceName": "contracts/RilascioAdmin.sol",
  "abi": [
    {
      "inputs": [],
      "stateMutability": "nonpayable",
      "type": "constructor"
    },
    {
      "anonymous": false,
      "inputs": [
        {
          "indexed": true,
          "internalType": "address",
          "name": "previousOwner",
          "type": "address"
        },
        {
          "indexed": true,
          "internalType": "address",
          "name": "newOwner",
          "type": "address"
        }
      ],
      "name": "OwnershipTransferred",
      "type": "event"
    },
    {
      "inputs": [
        {
          "internalType": "address",
          "name": "_address",
          "type": "address"
        }
      ],
      "name": "changeAdmin",
      "outputs": [],
      "stateMutability": "nonpayable",
      "type": "function"
    },
    {
      "inputs": [
        {
          "internalType": "uint256",
          "name": "adminRoyalty_",
          "type": "uint256"
        }
      ],
      "name": "changeAdminRoyalty",
      "outputs": [],
      "stateMutability": "nonpayable",
      "type": "function"
    },
    {
      "inputs": [
        {
          "internalType": "uint256",
          "name": "_fee",
          "type": "uint256"
        }
      ],
      "name": "changeMinimumRentalFee",
      "outputs": [],
      "stateMutability": "nonpayable",
      "type": "function"
    },
    {
      "inputs": [],
      "name": "getAdminAddress",
      "outputs": [
        {
          "internalType": "address",
          "name": "",
          "type": "address"
        }
      ],
      "stateMutability": "view",
      "type": "function"
    },
    {
      "inputs": [],
      "name": "getAdminRoyalty",
      "outputs": [
        {
          "internalType": "uint256",
          "name": "",
          "type": "uint256"
        }
      ],
      "stateMutability": "view",
      "type": "function"
    },
    {
      "inputs": [],
      "name": "getMinimumRentalDuration",
      "outputs": [
        {
          "internalType": "uint256",
          "name": "",
          "type": "uint256"
        }
      ],
      "stateMutability": "view",
      "type": "function"
    },
    {
      "inputs": [],
      "name": "getMinimumRentalFee",
      "outputs": [
        {
          "internalType": "uint256",
          "name": "",
          "type": "uint256"
        }
      ],
      "stateMutability": "view",
      "type": "function"
    },
    {
      "inputs": [],
      "name": "getRilascioO",
      "outputs": [
        {
          "internalType": "address",
          "name": "",
          "type": "address"
        }
      ],
      "stateMutability": "view",
      "type": "function"
    },
    {
      "inputs": [],
      "name": "getRilascioY",
      "outputs": [
        {
          "internalType": "address",
          "name": "",
          "type": "address"
        }
      ],
      "stateMutability": "view",
      "type": "function"
    },
    {
      "inputs": [
        {
          "internalType": "address",
          "name": "_operator",
          "type": "address"
        },
        {
          "internalType": "address",
          "name": "_from",
          "type": "address"
        },
        {
          "internalType": "uint256",
          "name": "_tokenId",
          "type": "uint256"
        },
        {
          "internalType": "bytes",
          "name": "_data",
          "type": "bytes"
        }
      ],
      "name": "onERC721Received",
      "outputs": [
        {
          "internalType": "bytes4",
          "name": "",
          "type": "bytes4"
        }
      ],
      "stateMutability": "view",
      "type": "function"
    },
    {
      "inputs": [],
      "name": "owner",
      "outputs": [
        {
          "internalType": "address",
          "name": "",
          "type": "address"
        }
      ],
      "stateMutability": "view",
      "type": "function"
    },
    {
      "inputs": [],
      "name": "renounceOwnership",
      "outputs": [],
      "stateMutability": "nonpayable",
      "type": "function"
    },
    {
      "inputs": [
        {
          "internalType": "address",
          "name": "oNft_",
          "type": "address"
        }
      ],
      "name": "setRilascioO",
      "outputs": [],
      "stateMutability": "nonpayable",
      "type": "function"
    },
    {
      "inputs": [
        {
          "internalType": "address",
          "name": "yNft_",
          "type": "address"
        }
      ],
      "name": "setRilascioY",
      "outputs": [],
      "stateMutability": "nonpayable",
      "type": "function"
    },
    {
      "inputs": [
        {
          "internalType": "address",
          "name": "newOwner",
          "type": "address"
        }
      ],
      "name": "transferOwnership",
      "outputs": [],
      "stateMutability": "nonpayable",
      "type": "function"
    }
  ],
  "bytecode": "0x6080604052606460025566038d7ea4c6800060035560016004556103e860055534801561002b57600080fd5b506100353361004c565b600180546001600160a01b0319163317905561009c565b600080546001600160a01b038381166001600160a01b0319831681178455604051919092169283917f8be0079c531659141344cd1fd0a4f28419497f9722a3daafe3b4186f6b6457e09190a35050565b61070c806100ab6000396000f3fe608060405234801561001057600080fd5b50600436106100c55760003560e01c80631336c631146100ca578063150b7a02146100df5780632317da24146101105780634b4921d614610123578063569e11851461013d578063651ebf7b14610150578063715018a6146101635780638da5cb5b1461016b5780638f28397014610173578063b0f475cd14610186578063b2e6b91214610198578063bb890362146101a9578063c1f56ef8146101b1578063ce498d0e146101b9578063f2fde38b146101ca575b600080fd5b6100dd6100d8366004610563565b6101dd565b005b6100f26100ed366004610587565b610232565b6040516001600160e01b031990911681526020015b60405180910390f35b6100dd61011e366004610625565b61031e565b6007546001600160a01b03165b604051610107919061063e565b6100dd61014b366004610563565b61034d565b6100dd61015e366004610625565b610399565b6100dd6103c8565b610130610403565b6100dd610181366004610563565b610412565b6004545b604051908152602001610107565b6001546001600160a01b0316610130565b60035461018a565b60025461018a565b6006546001600160a01b0316610130565b6100dd6101d8366004610563565b61045e565b6001546001600160a01b031633146102105760405162461bcd60e51b815260040161020790610652565b60405180910390fd5b600680546001600160a01b0319166001600160a01b0392909216919091179055565b604051635a1ca64f60e01b815260009081903090635a1ca64f9061025a90339060040161063e565b60206040518083038186803b15801561027257600080fd5b505afa158015610286573d6000803e3d6000fd5b505050506040513d601f19601f820116820180604052508101906102aa9190610684565b6001600160a01b0316141561030c5760405162461bcd60e51b815260206004820152602260248201527f52696c617363696f3a205468697320546f6b656e206e6f7420537570706f7274604482015261195960f21b6064820152608401610207565b50630a85bd0160e11b95945050505050565b6001546001600160a01b031633146103485760405162461bcd60e51b815260040161020790610652565b600355565b6001546001600160a01b031633146103775760405162461bcd60e51b815260040161020790610652565b600780546001600160a01b0319166001600160a01b0392909216919091179055565b6001546001600160a01b031633146103c35760405162461bcd60e51b815260040161020790610652565b600255565b336103d1610403565b6001600160a01b0316146103f75760405162461bcd60e51b8152600401610207906106a1565b61040160006104fe565b565b6000546001600160a01b031690565b6001546001600160a01b0316331461043c5760405162461bcd60e51b815260040161020790610652565b600180546001600160a01b0319166001600160a01b0392909216919091179055565b33610467610403565b6001600160a01b03161461048d5760405162461bcd60e51b8152600401610207906106a1565b6001600160a01b0381166104f25760405162461bcd60e51b815260206004820152602660248201527f4f776e61626c653a206e6577206f776e657220697320746865207a65726f206160448201526564647265737360d01b6064820152608401610207565b6104fb816104fe565b50565b600080546001600160a01b038381166001600160a01b0319831681178455604051919092169283917f8be0079c531659141344cd1fd0a4f28419497f9722a3daafe3b4186f6b6457e09190a35050565b6001600160a01b03811681146104fb57600080fd5b60006020828403121561057557600080fd5b81356105808161054e565b9392505050565b60008060008060006080868803121561059f57600080fd5b85356105aa8161054e565b945060208601356105ba8161054e565b93506040860135925060608601356001600160401b03808211156105dd57600080fd5b818801915088601f8301126105f157600080fd5b81358181111561060057600080fd5b89602082850101111561061257600080fd5b9699959850939650602001949392505050565b60006020828403121561063757600080fd5b5035919050565b6001600160a01b0391909116815260200190565b60208082526018908201527737b7363c9037bbb732b91034b99030b63637bbb0b731b29760411b604082015260600190565b60006020828403121561069657600080fd5b81516105808161054e565b6020808252818101527f4f776e61626c653a2063616c6c6572206973206e6f7420746865206f776e657260408201526060019056fea26469706673582212203adaab14f43d54c57a331856ee1698fcf19f4c9535bf42064251fda6bd048df764736f6c63430008090033",
  "linkReferences": {},
  "deployedLinkReferences": {}
}