{
  "_format": "hh-sol-artifact-1",
  "contractName": "RilascioY",
  "sourceName": "contracts/RilascioY.sol",
  "abi": [
    {
      "inputs": [
        {
          "internalType": "address",
          "name": "rilascio_",
          "type": "address"
        }
      ],
      "stateMutability": "nonpayable",
      "type": "constructor"
    },
    {
      "anonymous": false,
      "inputs": [
        {
          "indexed": true,
          "internalType": "address",
          "name": "owner",
          "type": "address"
        },
        {
          "indexed": true,
          "internalType": "address",
          "name": "approved",
          "type": "address"
        },
        {
          "indexed": true,
          "internalType": "uint256",
          "name": "tokenId",
          "type": "uint256"
        }
      ],
      "name": "Approval",
      "type": "event"
    },
    {
      "anonymous": false,
      "inputs": [
        {
          "indexed": true,
          "internalType": "address",
          "name": "owner",
          "type": "address"
        },
        {
          "indexed": true,
          "internalType": "address",
          "name": "operator",
          "type": "address"
        },
        {
          "indexed": false,
          "internalType": "bool",
          "name": "approved",
          "type": "bool"
        }
      ],
      "name": "ApprovalForAll",
      "type": "event"
    },
    {
      "anonymous": false,
      "inputs": [
        {
          "indexed": true,
          "internalType": "address",
          "name": "previousOwner",
          "type": "address"
        },
        {
          "indexed": true,
          "internalType": "address",
          "name": "newOwner",
          "type": "address"
        }
      ],
      "name": "OwnershipTransferred",
      "type": "event"
    },
    {
      "anonymous": false,
      "inputs": [
        {
          "indexed": true,
          "internalType": "address",
          "name": "from",
          "type": "address"
        },
        {
          "indexed": true,
          "internalType": "address",
          "name": "to",
          "type": "address"
        },
        {
          "indexed": true,
          "internalType": "uint256",
          "name": "tokenId",
          "type": "uint256"
        }
      ],
      "name": "Transfer",
      "type": "event"
    },
    {
      "inputs": [
        {
          "internalType": "address",
          "name": "to",
          "type": "address"
        },
        {
          "internalType": "uint256",
          "name": "tokenId",
          "type": "uint256"
        }
      ],
      "name": "approve",
      "outputs": [],
      "stateMutability": "nonpayable",
      "type": "function"
    },
    {
      "inputs": [
        {
          "internalType": "address",
          "name": "owner",
          "type": "address"
        }
      ],
      "name": "balanceOf",
      "outputs": [
        {
          "internalType": "uint256",
          "name": "",
          "type": "uint256"
        }
      ],
      "stateMutability": "view",
      "type": "function"
    },
    {
      "inputs": [
        {
          "internalType": "uint256",
          "name": "_lockId",
          "type": "uint256"
        }
      ],
      "name": "burn",
      "outputs": [],
      "stateMutability": "nonpayable",
      "type": "function"
    },
    {
      "inputs": [
        {
          "internalType": "address",
          "name": "_address",
          "type": "address"
        }
      ],
      "name": "changeAdmin",
      "outputs": [],
      "stateMutability": "nonpayable",
      "type": "function"
    },
    {
      "inputs": [
        {
          "internalType": "uint256",
          "name": "adminRoyalty_",
          "type": "uint256"
        }
      ],
      "name": "changeAdminRoyalty",
      "outputs": [],
      "stateMutability": "nonpayable",
      "type": "function"
    },
    {
      "inputs": [
        {
          "internalType": "uint256",
          "name": "_fee",
          "type": "uint256"
        }
      ],
      "name": "changeMinimumRentalFee",
      "outputs": [],
      "stateMutability": "nonpayable",
      "type": "function"
    },
    {
      "inputs": [
        {
          "internalType": "uint256",
          "name": "_tokenId",
          "type": "uint256"
        }
      ],
      "name": "exists",
      "outputs": [
        {
          "internalType": "bool",
          "name": "",
          "type": "bool"
        }
      ],
      "stateMutability": "view",
      "type": "function"
    },
    {
      "inputs": [],
      "name": "getAdminAddress",
      "outputs": [
        {
          "internalType": "address",
          "name": "",
          "type": "address"
        }
      ],
      "stateMutability": "view",
      "type": "function"
    },
    {
      "inputs": [],
      "name": "getAdminRoyalty",
      "outputs": [
        {
          "internalType": "uint256",
          "name": "",
          "type": "uint256"
        }
      ],
      "stateMutability": "view",
      "type": "function"
    },
    {
      "inputs": [
        {
          "internalType": "uint256",
          "name": "tokenId",
          "type": "uint256"
        }
      ],
      "name": "getApproved",
      "outputs": [
        {
          "internalType": "address",
          "name": "",
          "type": "address"
        }
      ],
      "stateMutability": "view",
      "type": "function"
    },
    {
      "inputs": [],
      "name": "getMinimumRentalDuration",
      "outputs": [
        {
          "internalType": "uint256",
          "name": "",
          "type": "uint256"
        }
      ],
      "stateMutability": "view",
      "type": "function"
    },
    {
      "inputs": [],
      "name": "getMinimumRentalFee",
      "outputs": [
        {
          "internalType": "uint256",
          "name": "",
          "type": "uint256"
        }
      ],
      "stateMutability": "view",
      "type": "function"
    },
    {
      "inputs": [],
      "name": "getRilascioO",
      "outputs": [
        {
          "internalType": "address",
          "name": "",
          "type": "address"
        }
      ],
      "stateMutability": "view",
      "type": "function"
    },
    {
      "inputs": [],
      "name": "getRilascioY",
      "outputs": [
        {
          "internalType": "address",
          "name": "",
          "type": "address"
        }
      ],
      "stateMutability": "view",
      "type": "function"
    },
    {
      "inputs": [
        {
          "internalType": "address",
          "name": "owner",
          "type": "address"
        },
        {
          "internalType": "address",
          "name": "operator",
          "type": "address"
        }
      ],
      "name": "isApprovedForAll",
      "outputs": [
        {
          "internalType": "bool",
          "name": "",
          "type": "bool"
        }
      ],
      "stateMutability": "view",
      "type": "function"
    },
    {
      "inputs": [
        {
          "internalType": "address",
          "name": "_lender",
          "type": "address"
        },
        {
          "internalType": "uint256",
          "name": "_lockId",
          "type": "uint256"
        }
      ],
      "name": "mint",
      "outputs": [],
      "stateMutability": "nonpayable",
      "type": "function"
    },
    {
      "inputs": [],
      "name": "name",
      "outputs": [
        {
          "internalType": "string",
          "name": "",
          "type": "string"
        }
      ],
      "stateMutability": "view",
      "type": "function"
    },
    {
      "inputs": [
        {
          "internalType": "address",
          "name": "_operator",
          "type": "address"
        },
        {
          "internalType": "address",
          "name": "_from",
          "type": "address"
        },
        {
          "internalType": "uint256",
          "name": "_tokenId",
          "type": "uint256"
        },
        {
          "internalType": "bytes",
          "name": "_data",
          "type": "bytes"
        }
      ],
      "name": "onERC721Received",
      "outputs": [
        {
          "internalType": "bytes4",
          "name": "",
          "type": "bytes4"
        }
      ],
      "stateMutability": "view",
      "type": "function"
    },
    {
      "inputs": [],
      "name": "owner",
      "outputs": [
        {
          "internalType": "address",
          "name": "",
          "type": "address"
        }
      ],
      "stateMutability": "view",
      "type": "function"
    },
    {
      "inputs": [
        {
          "internalType": "uint256",
          "name": "tokenId",
          "type": "uint256"
        }
      ],
      "name": "ownerOf",
      "outputs": [
        {
          "internalType": "address",
          "name": "",
          "type": "address"
        }
      ],
      "stateMutability": "view",
      "type": "function"
    },
    {
      "inputs": [],
      "name": "renounceOwnership",
      "outputs": [],
      "stateMutability": "nonpayable",
      "type": "function"
    },
    {
      "inputs": [
        {
          "internalType": "address",
          "name": "from",
          "type": "address"
        },
        {
          "internalType": "address",
          "name": "to",
          "type": "address"
        },
        {
          "internalType": "uint256",
          "name": "tokenId",
          "type": "uint256"
        }
      ],
      "name": "safeTransferFrom",
      "outputs": [],
      "stateMutability": "nonpayable",
      "type": "function"
    },
    {
      "inputs": [
        {
          "internalType": "address",
          "name": "from",
          "type": "address"
        },
        {
          "internalType": "address",
          "name": "to",
          "type": "address"
        },
        {
          "internalType": "uint256",
          "name": "tokenId",
          "type": "uint256"
        },
        {
          "internalType": "bytes",
          "name": "_data",
          "type": "bytes"
        }
      ],
      "name": "safeTransferFrom",
      "outputs": [],
      "stateMutability": "nonpayable",
      "type": "function"
    },
    {
      "inputs": [
        {
          "internalType": "address",
          "name": "operator",
          "type": "address"
        },
        {
          "internalType": "bool",
          "name": "approved",
          "type": "bool"
        }
      ],
      "name": "setApprovalForAll",
      "outputs": [],
      "stateMutability": "nonpayable",
      "type": "function"
    },
    {
      "inputs": [
        {
          "internalType": "address",
          "name": "oNft_",
          "type": "address"
        }
      ],
      "name": "setRilascioO",
      "outputs": [],
      "stateMutability": "nonpayable",
      "type": "function"
    },
    {
      "inputs": [
        {
          "internalType": "address",
          "name": "yNft_",
          "type": "address"
        }
      ],
      "name": "setRilascioY",
      "outputs": [],
      "stateMutability": "nonpayable",
      "type": "function"
    },
    {
      "inputs": [
        {
          "internalType": "bytes4",
          "name": "interfaceId",
          "type": "bytes4"
        }
      ],
      "name": "supportsInterface",
      "outputs": [
        {
          "internalType": "bool",
          "name": "",
          "type": "bool"
        }
      ],
      "stateMutability": "view",
      "type": "function"
    },
    {
      "inputs": [],
      "name": "symbol",
      "outputs": [
        {
          "internalType": "string",
          "name": "",
          "type": "string"
        }
      ],
      "stateMutability": "view",
      "type": "function"
    },
    {
      "inputs": [
        {
          "internalType": "uint256",
          "name": "_lockId",
          "type": "uint256"
        }
      ],
      "name": "tokenURI",
      "outputs": [
        {
          "internalType": "string",
          "name": "",
          "type": "string"
        }
      ],
      "stateMutability": "view",
      "type": "function"
    },
    {
      "inputs": [
        {
          "internalType": "address",
          "name": "from",
          "type": "address"
        },
        {
          "internalType": "address",
          "name": "to",
          "type": "address"
        },
        {
          "internalType": "uint256",
          "name": "tokenId",
          "type": "uint256"
        }
      ],
      "name": "transferFrom",
      "outputs": [],
      "stateMutability": "nonpayable",
      "type": "function"
    },
    {
      "inputs": [
        {
          "internalType": "address",
          "name": "newOwner",
          "type": "address"
        }
      ],
      "name": "transferOwnership",
      "outputs": [],
      "stateMutability": "nonpayable",
      "type": "function"
    }
  ],
  "bytecode": "0x6080604052606460095566038d7ea4c68000600a556001600b556103e8600c553480156200002c57600080fd5b506040516200226c3803806200226c8339810160408190526200004f9162000207565b60408051808201825260118152705969656c644e46542d52696c617363696f60781b6020808301918252835180850190945260048452631e53919560e21b908401528151919291620000a49160009162000161565b508051620000ba90600190602084019062000161565b505050620000d7620000d16200010b60201b60201c565b6200010f565b60088054336001600160a01b031991821617909155600f80549091166001600160a01b039290921691909117905562000276565b3390565b600780546001600160a01b038381166001600160a01b0319831681179093556040519116919082907f8be0079c531659141344cd1fd0a4f28419497f9722a3daafe3b4186f6b6457e090600090a35050565b8280546200016f9062000239565b90600052602060002090601f016020900481019282620001935760008555620001de565b82601f10620001ae57805160ff1916838001178555620001de565b82800160010185558215620001de579182015b82811115620001de578251825591602001919060010190620001c1565b50620001ec929150620001f0565b5090565b5b80821115620001ec5760008155600101620001f1565b6000602082840312156200021a57600080fd5b81516001600160a01b03811681146200023257600080fd5b9392505050565b600181811c908216806200024e57607f821691505b602082108114156200027057634e487b7160e01b600052602260045260246000fd5b50919050565b611fe680620002866000396000f3fe608060405234801561001057600080fd5b50600436106101755760003560e01c806301ffc9a71461017a57806306fdde03146101a2578063081812fc146101b7578063095ea7b3146101d75780631336c631146101ec578063150b7a02146101ff5780632317da241461022b57806323b872dd1461023e57806340c10f191461025157806342842e0e1461026457806342966c68146102775780634b4921d61461028a5780634f558e791461029b578063569e1185146102ae5780636352211e146102c1578063651ebf7b146102d457806370a08231146102e7578063715018a6146103085780638da5cb5b146103105780638f2839701461031857806395d89b411461032b578063a22cb46514610333578063b0f475cd14610346578063b2e6b9121461034e578063b88d4fde1461035f578063bb89036214610372578063c1f56ef81461037a578063c87b56dd14610382578063ce498d0e14610395578063e985e9c5146103a6578063f2fde38b146103b9575b600080fd5b61018d61018836600461179a565b6103cc565b60405190151581526020015b60405180910390f35b6101aa61041e565b6040516101999190611816565b6101ca6101c5366004611829565b6104b0565b6040516101999190611842565b6101ea6101e536600461186b565b61053d565b005b6101ea6101fa366004611897565b61064e565b61021261020d3660046118b4565b61069a565b6040516001600160e01b03199091168152602001610199565b6101ea610239366004611829565b610786565b6101ea61024c366004611952565b6107b5565b6101ea61025f36600461186b565b6107e6565b6101ea610272366004611952565b61086d565b6101ea610285366004611829565b610888565b600e546001600160a01b03166101ca565b61018d6102a9366004611829565b6108be565b6101ea6102bc366004611897565b6108c9565b6101ca6102cf366004611829565b610915565b6101ea6102e2366004611829565b61098c565b6102fa6102f5366004611897565b6109bb565b604051908152602001610199565b6101ea610a42565b6101ca610a7d565b6101ea610326366004611897565b610a8c565b6101aa610ad8565b6101ea6103413660046119a1565b610ae7565b600b546102fa565b6008546001600160a01b03166101ca565b6101ea61036d366004611a70565b610af2565b600a546102fa565b6009546102fa565b6101aa610390366004611829565b610b2a565b600d546001600160a01b03166101ca565b61018d6103b4366004611b1e565b610da6565b6101ea6103c7366004611897565b610dd4565b60006001600160e01b031982166380ac58cd60e01b14806103fd57506001600160e01b03198216635b5e139f60e01b145b8061041857506301ffc9a760e01b6001600160e01b03198316145b92915050565b60606000805461042d90611b4c565b80601f016020809104026020016040519081016040528092919081815260200182805461045990611b4c565b80156104a65780601f1061047b576101008083540402835291602001916104a6565b820191906000526020600020905b81548152906001019060200180831161048957829003601f168201915b5050505050905090565b60006104bb82610e71565b6105215760405162461bcd60e51b815260206004820152602c60248201527f4552433732313a20617070726f76656420717565727920666f72206e6f6e657860448201526b34b9ba32b73a103a37b5b2b760a11b60648201526084015b60405180910390fd5b506000908152600460205260409020546001600160a01b031690565b600061054882610915565b9050806001600160a01b0316836001600160a01b031614156105b65760405162461bcd60e51b815260206004820152602160248201527f4552433732313a20617070726f76616c20746f2063757272656e74206f776e656044820152603960f91b6064820152608401610518565b336001600160a01b03821614806105d257506105d28133610da6565b61063f5760405162461bcd60e51b815260206004820152603860248201527f4552433732313a20617070726f76652063616c6c6572206973206e6f74206f776044820152771b995c881b9bdc88185c1c1c9bdd995908199bdc88185b1b60421b6064820152608401610518565b6106498383610e8e565b505050565b6008546001600160a01b031633146106785760405162461bcd60e51b815260040161051890611b87565b600d80546001600160a01b0319166001600160a01b0392909216919091179055565b604051635a1ca64f60e01b815260009081903090635a1ca64f906106c2903390600401611842565b60206040518083038186803b1580156106da57600080fd5b505afa1580156106ee573d6000803e3d6000fd5b505050506040513d601f19601f820116820180604052508101906107129190611bc9565b6001600160a01b031614156107745760405162461bcd60e51b815260206004820152602260248201527f52696c617363696f3a205468697320546f6b656e206e6f7420537570706f7274604482015261195960f21b6064820152608401610518565b50630a85bd0160e11b95945050505050565b6008546001600160a01b031633146107b05760405162461bcd60e51b815260040161051890611b87565b600a55565b6107bf3382610efc565b6107db5760405162461bcd60e51b815260040161051890611be6565b610649838383610fc6565b600f546001600160a01b031633146108105760405162461bcd60e51b815260040161051890611c37565b600f546001600160a01b0316331461085f5760405162461bcd60e51b81526020600482015260126024820152712cb7ba9030b932903737ba1036b4b73a32b960711b6044820152606401610518565b6108698282611150565b5050565b61064983838360405180602001604052806000815250610af2565b600f546001600160a01b031633146108b25760405162461bcd60e51b815260040161051890611c37565b6108bb8161116a565b50565b600061041882610e71565b6008546001600160a01b031633146108f35760405162461bcd60e51b815260040161051890611b87565b600e80546001600160a01b0319166001600160a01b0392909216919091179055565b6000818152600260205260408120546001600160a01b0316806104185760405162461bcd60e51b815260206004820152602960248201527f4552433732313a206f776e657220717565727920666f72206e6f6e657869737460448201526832b73a103a37b5b2b760b91b6064820152608401610518565b6008546001600160a01b031633146109b65760405162461bcd60e51b815260040161051890611b87565b600955565b60006001600160a01b038216610a265760405162461bcd60e51b815260206004820152602a60248201527f4552433732313a2062616c616e636520717565727920666f7220746865207a65604482015269726f206164647265737360b01b6064820152608401610518565b506001600160a01b031660009081526003602052604090205490565b33610a4b610a7d565b6001600160a01b031614610a715760405162461bcd60e51b815260040161051890611c6c565b610a7b60006111aa565b565b6007546001600160a01b031690565b6008546001600160a01b03163314610ab65760405162461bcd60e51b815260040161051890611b87565b600880546001600160a01b0319166001600160a01b0392909216919091179055565b60606001805461042d90611b4c565b6108693383836111fc565b610afc3383610efc565b610b185760405162461bcd60e51b815260040161051890611be6565b610b24848484846112c7565b50505050565b6060610b3582610e71565b610b995760405162461bcd60e51b815260206004820152602f60248201527f4552433732314d657461646174613a2055524920717565727920666f72206e6f60448201526e3732bc34b9ba32b73a103a37b5b2b760891b6064820152608401610518565b600f5460405163d7cd28c760e01b8152600481018490526000916001600160a01b03169063d7cd28c7906024016101406040518083038186803b158015610bdf57600080fd5b505afa158015610bf3573d6000803e3d6000fd5b505050506040513d601f19601f82011682018060405250810190610c179190611cac565b600f5460405163070d818f60e01b8152600481018690529192506000916001600160a01b039091169063070d818f9060240160206040518083038186803b158015610c6157600080fd5b505afa158015610c75573d6000803e3d6000fd5b505050506040513d601f19601f82011682018060405250810190610c999190611d4a565b8251602084015160408086015161010087015160c0880151925163990f128160e01b8152600481018b9052602481019590955260448501869052606485019390935260848401526001600160a01b0391821660a48401521660c482015290915060009073__$f4973c6ce12a10493066cd2795d734e850$__9063990f12819060e40160006040518083038186803b158015610d3357600080fd5b505af4158015610d47573d6000803e3d6000fd5b505050506040513d6000823e601f3d908101601f19168201604052610d6f9190810190611d63565b90506000610d7c826112fa565b604051602001610d8c9190611dd9565b60408051601f198184030181529190529695505050505050565b6001600160a01b03918216600090815260056020908152604080832093909416825291909152205460ff1690565b33610ddd610a7d565b6001600160a01b031614610e035760405162461bcd60e51b815260040161051890611c6c565b6001600160a01b038116610e685760405162461bcd60e51b815260206004820152602660248201527f4f776e61626c653a206e6577206f776e657220697320746865207a65726f206160448201526564647265737360d01b6064820152608401610518565b6108bb816111aa565b6000908152600260205260409020546001600160a01b0316151590565b600081815260046020526040902080546001600160a01b0319166001600160a01b0384169081179091558190610ec382610915565b6001600160a01b03167f8c5be1e5ebec7d5bd14f71427d1e84f3dd0314c0f7b2291e5b200ac8c7c3b92560405160405180910390a45050565b6000610f0782610e71565b610f685760405162461bcd60e51b815260206004820152602c60248201527f4552433732313a206f70657261746f7220717565727920666f72206e6f6e657860448201526b34b9ba32b73a103a37b5b2b760a11b6064820152608401610518565b6000610f7383610915565b9050806001600160a01b0316846001600160a01b03161480610f9a5750610f9a8185610da6565b80610fbe5750836001600160a01b0316610fb3846104b0565b6001600160a01b0316145b949350505050565b826001600160a01b0316610fd982610915565b6001600160a01b03161461103d5760405162461bcd60e51b815260206004820152602560248201527f4552433732313a207472616e736665722066726f6d20696e636f72726563742060448201526437bbb732b960d91b6064820152608401610518565b6001600160a01b03821661109f5760405162461bcd60e51b8152602060048201526024808201527f4552433732313a207472616e7366657220746f20746865207a65726f206164646044820152637265737360e01b6064820152608401610518565b6110aa600082610e8e565b6001600160a01b03831660009081526003602052604081208054600192906110d3908490611e34565b90915550506001600160a01b0382166000908152600360205260408120805460019290611101908490611e4b565b909155505060008181526002602052604080822080546001600160a01b0319166001600160a01b038681169182179092559151849391871691600080516020611f9183398151915291a4505050565b61086982826040518060200160405280600081525061144d565b61117381611480565b6000818152600660205260409020805461118c90611b4c565b1590506108bb5760008181526006602052604081206108bb91611736565b600780546001600160a01b038381166001600160a01b0319831681179093556040519116919082907f8be0079c531659141344cd1fd0a4f28419497f9722a3daafe3b4186f6b6457e090600090a35050565b816001600160a01b0316836001600160a01b0316141561125a5760405162461bcd60e51b815260206004820152601960248201527822a9219b99189d1030b8383937bb32903a379031b0b63632b960391b6044820152606401610518565b6001600160a01b03838116600081815260056020908152604080832094871680845294825291829020805460ff191686151590811790915591519182527f17307eab39ab6107e8899845ad3d59bd9653f200f220920489ca2b5937696c31910160405180910390a3505050565b6112d2848484610fc6565b6112de84848484611509565b610b245760405162461bcd60e51b815260040161051890611e63565b606081516000141561131a57505060408051602081019091526000815290565b6000604051806060016040528060408152602001611f5160409139905060006003845160026113499190611e4b565b6113539190611eb5565b61135e906004611ed7565b6001600160401b03811115611375576113756119da565b6040519080825280601f01601f19166020018201604052801561139f576020820181803683370190505b509050600182016020820185865187015b8082101561140b576003820191508151603f8160121c168501518453600184019350603f81600c1c168501518453600184019350603f8160061c168501518453600184019350603f81168501518453506001830192506113b0565b5050600386510660018114611427576002811461143a57611442565b603d6001830353603d6002830353611442565b603d60018303535b509195945050505050565b6114578383611616565b6114646000848484611509565b6106495760405162461bcd60e51b815260040161051890611e63565b600061148b82610915565b9050611498600083610e8e565b6001600160a01b03811660009081526003602052604081208054600192906114c1908490611e34565b909155505060008281526002602052604080822080546001600160a01b0319169055518391906001600160a01b03841690600080516020611f91833981519152908390a45050565b60006001600160a01b0384163b1561160b57604051630a85bd0160e11b81526001600160a01b0385169063150b7a029061154d903390899088908890600401611ef6565b602060405180830381600087803b15801561156757600080fd5b505af1925050508015611597575060408051601f3d908101601f1916820190925261159491810190611f33565b60015b6115f1573d8080156115c5576040519150601f19603f3d011682016040523d82523d6000602084013e6115ca565b606091505b5080516115e95760405162461bcd60e51b815260040161051890611e63565b805181602001fd5b6001600160e01b031916630a85bd0160e11b149050610fbe565b506001949350505050565b6001600160a01b03821661166c5760405162461bcd60e51b815260206004820181905260248201527f4552433732313a206d696e7420746f20746865207a65726f20616464726573736044820152606401610518565b61167581610e71565b156116c15760405162461bcd60e51b815260206004820152601c60248201527b115490cdcc8c4e881d1bdad95b88185b1c9958591e481b5a5b9d195960221b6044820152606401610518565b6001600160a01b03821660009081526003602052604081208054600192906116ea908490611e4b565b909155505060008181526002602052604080822080546001600160a01b0319166001600160a01b0386169081179091559051839290600080516020611f91833981519152908290a45050565b50805461174290611b4c565b6000825580601f10611752575050565b601f0160209004906000526020600020908101906108bb91905b80821115611780576000815560010161176c565b5090565b6001600160e01b0319811681146108bb57600080fd5b6000602082840312156117ac57600080fd5b81356117b781611784565b9392505050565b60005b838110156117d95781810151838201526020016117c1565b83811115610b245750506000910152565b600081518084526118028160208601602086016117be565b601f01601f19169290920160200192915050565b6020815260006117b760208301846117ea565b60006020828403121561183b57600080fd5b5035919050565b6001600160a01b0391909116815260200190565b6001600160a01b03811681146108bb57600080fd5b6000806040838503121561187e57600080fd5b823561188981611856565b946020939093013593505050565b6000602082840312156118a957600080fd5b81356117b781611856565b6000806000806000608086880312156118cc57600080fd5b85356118d781611856565b945060208601356118e781611856565b93506040860135925060608601356001600160401b038082111561190a57600080fd5b818801915088601f83011261191e57600080fd5b81358181111561192d57600080fd5b89602082850101111561193f57600080fd5b9699959850939650602001949392505050565b60008060006060848603121561196757600080fd5b833561197281611856565b9250602084013561198281611856565b929592945050506040919091013590565b80151581146108bb57600080fd5b600080604083850312156119b457600080fd5b82356119bf81611856565b915060208301356119cf81611993565b809150509250929050565b634e487b7160e01b600052604160045260246000fd5b60405161014081016001600160401b0381118282101715611a1357611a136119da565b60405290565b604051601f8201601f191681016001600160401b0381118282101715611a4157611a416119da565b604052919050565b60006001600160401b03821115611a6257611a626119da565b50601f01601f191660200190565b60008060008060808587031215611a8657600080fd5b8435611a9181611856565b93506020850135611aa181611856565b92506040850135915060608501356001600160401b03811115611ac357600080fd5b8501601f81018713611ad457600080fd5b8035611ae7611ae282611a49565b611a19565b818152886020838501011115611afc57600080fd5b8160208401602083013760006020838301015280935050505092959194509250565b60008060408385031215611b3157600080fd5b8235611b3c81611856565b915060208301356119cf81611856565b600181811c90821680611b6057607f821691505b60208210811415611b8157634e487b7160e01b600052602260045260246000fd5b50919050565b60208082526018908201527737b7363c9037bbb732b91034b99030b63637bbb0b731b29760411b604082015260600190565b8051611bc481611856565b919050565b600060208284031215611bdb57600080fd5b81516117b781611856565b60208082526031908201527f4552433732313a207472616e736665722063616c6c6572206973206e6f74206f6040820152701ddb995c881b9bdc88185c1c1c9bdd9959607a1b606082015260800190565b6020808252601b908201527a37b7363c903934b630b9b1b4b79034b99030b63637bbb0b731b29760291b604082015260600190565b6020808252818101527f4f776e61626c653a2063616c6c6572206973206e6f7420746865206f776e6572604082015260600190565b8051611bc481611993565b60006101408284031215611cbf57600080fd5b611cc76119f0565b825181526020830151602082015260408301516040820152606083015160608201526080830151608082015260a083015160a0820152611d0960c08401611bb9565b60c0820152611d1a60e08401611bb9565b60e0820152610100611d2d818501611bb9565b90820152610120611d3f848201611ca1565b908201529392505050565b600060208284031215611d5c57600080fd5b5051919050565b600060208284031215611d7557600080fd5b81516001600160401b03811115611d8b57600080fd5b8201601f81018413611d9c57600080fd5b8051611daa611ae282611a49565b818152856020838501011115611dbf57600080fd5b611dd08260208301602086016117be565b95945050505050565b7f646174613a6170706c69636174696f6e2f6a736f6e3b6261736536342c000000815260008251611e1181601d8501602087016117be565b91909101601d0192915050565b634e487b7160e01b600052601160045260246000fd5b600082821015611e4657611e46611e1e565b500390565b60008219821115611e5e57611e5e611e1e565b500190565b60208082526032908201527f4552433732313a207472616e7366657220746f206e6f6e20455243373231526560408201527131b2b4bb32b91034b6b83632b6b2b73a32b960711b606082015260800190565b600082611ed257634e487b7160e01b600052601260045260246000fd5b500490565b6000816000190483118215151615611ef157611ef1611e1e565b500290565b6001600160a01b0385811682528416602082015260408101839052608060608201819052600090611f29908301846117ea565b9695505050505050565b600060208284031215611f4557600080fd5b81516117b78161178456fe4142434445464748494a4b4c4d4e4f505152535455565758595a6162636465666768696a6b6c6d6e6f707172737475767778797a303132333435363738392b2fddf252ad1be2c89b69c2b068fc378daa952ba7f163c4a11628f55a4df523b3efa2646970667358221220c20f5d049e2ff85c453b92fac8db1c00659b5dbba9d359be1fdfc07ed4ec51e664736f6c63430008090033",
  "linkReferences": {
    "contracts/RilascioSVG.sol": {
      "RilascioSVG": [
        {
          "length": 20,
          "start": 3972
        }
      ]
    }
  },
  "deployedLinkReferences": {
    "contracts/RilascioSVG.sol": {
      "RilascioSVG": [
        {
          "length": 20,
          "start": 3326
        }
      ]
    }
  }
}