{
  "_format": "hh-sol-artifact-1",
  "contractName": "RilascioO",
  "sourceName": "contracts/RilascioO.sol",
  "abi": [
    {
      "inputs": [
        {
          "internalType": "address",
          "name": "rilascio_",
          "type": "address"
        }
      ],
      "stateMutability": "nonpayable",
      "type": "constructor"
    },
    {
      "anonymous": false,
      "inputs": [
        {
          "indexed": true,
          "internalType": "address",
          "name": "owner",
          "type": "address"
        },
        {
          "indexed": true,
          "internalType": "address",
          "name": "approved",
          "type": "address"
        },
        {
          "indexed": true,
          "internalType": "uint256",
          "name": "tokenId",
          "type": "uint256"
        }
      ],
      "name": "Approval",
      "type": "event"
    },
    {
      "anonymous": false,
      "inputs": [
        {
          "indexed": true,
          "internalType": "address",
          "name": "owner",
          "type": "address"
        },
        {
          "indexed": true,
          "internalType": "address",
          "name": "operator",
          "type": "address"
        },
        {
          "indexed": false,
          "internalType": "bool",
          "name": "approved",
          "type": "bool"
        }
      ],
      "name": "ApprovalForAll",
      "type": "event"
    },
    {
      "anonymous": false,
      "inputs": [
        {
          "indexed": true,
          "internalType": "address",
          "name": "previousOwner",
          "type": "address"
        },
        {
          "indexed": true,
          "internalType": "address",
          "name": "newOwner",
          "type": "address"
        }
      ],
      "name": "OwnershipTransferred",
      "type": "event"
    },
    {
      "anonymous": false,
      "inputs": [
        {
          "indexed": true,
          "internalType": "address",
          "name": "from",
          "type": "address"
        },
        {
          "indexed": true,
          "internalType": "address",
          "name": "to",
          "type": "address"
        },
        {
          "indexed": true,
          "internalType": "uint256",
          "name": "tokenId",
          "type": "uint256"
        }
      ],
      "name": "Transfer",
      "type": "event"
    },
    {
      "inputs": [
        {
          "internalType": "address",
          "name": "to",
          "type": "address"
        },
        {
          "internalType": "uint256",
          "name": "tokenId",
          "type": "uint256"
        }
      ],
      "name": "approve",
      "outputs": [],
      "stateMutability": "nonpayable",
      "type": "function"
    },
    {
      "inputs": [
        {
          "internalType": "address",
          "name": "owner",
          "type": "address"
        }
      ],
      "name": "balanceOf",
      "outputs": [
        {
          "internalType": "uint256",
          "name": "",
          "type": "uint256"
        }
      ],
      "stateMutability": "view",
      "type": "function"
    },
    {
      "inputs": [
        {
          "internalType": "uint256",
          "name": "_lockId",
          "type": "uint256"
        }
      ],
      "name": "burn",
      "outputs": [],
      "stateMutability": "nonpayable",
      "type": "function"
    },
    {
      "inputs": [
        {
          "internalType": "address",
          "name": "_address",
          "type": "address"
        }
      ],
      "name": "changeAdmin",
      "outputs": [],
      "stateMutability": "nonpayable",
      "type": "function"
    },
    {
      "inputs": [
        {
          "internalType": "uint256",
          "name": "adminRoyalty_",
          "type": "uint256"
        }
      ],
      "name": "changeAdminRoyalty",
      "outputs": [],
      "stateMutability": "nonpayable",
      "type": "function"
    },
    {
      "inputs": [
        {
          "internalType": "uint256",
          "name": "_fee",
          "type": "uint256"
        }
      ],
      "name": "changeMinimumRentalFee",
      "outputs": [],
      "stateMutability": "nonpayable",
      "type": "function"
    },
    {
      "inputs": [
        {
          "internalType": "uint256",
          "name": "_tokenId",
          "type": "uint256"
        }
      ],
      "name": "exists",
      "outputs": [
        {
          "internalType": "bool",
          "name": "",
          "type": "bool"
        }
      ],
      "stateMutability": "view",
      "type": "function"
    },
    {
      "inputs": [],
      "name": "getAdminAddress",
      "outputs": [
        {
          "internalType": "address",
          "name": "",
          "type": "address"
        }
      ],
      "stateMutability": "view",
      "type": "function"
    },
    {
      "inputs": [],
      "name": "getAdminRoyalty",
      "outputs": [
        {
          "internalType": "uint256",
          "name": "",
          "type": "uint256"
        }
      ],
      "stateMutability": "view",
      "type": "function"
    },
    {
      "inputs": [
        {
          "internalType": "uint256",
          "name": "tokenId",
          "type": "uint256"
        }
      ],
      "name": "getApproved",
      "outputs": [
        {
          "internalType": "address",
          "name": "",
          "type": "address"
        }
      ],
      "stateMutability": "view",
      "type": "function"
    },
    {
      "inputs": [],
      "name": "getMinimumRentalDuration",
      "outputs": [
        {
          "internalType": "uint256",
          "name": "",
          "type": "uint256"
        }
      ],
      "stateMutability": "view",
      "type": "function"
    },
    {
      "inputs": [],
      "name": "getMinimumRentalFee",
      "outputs": [
        {
          "internalType": "uint256",
          "name": "",
          "type": "uint256"
        }
      ],
      "stateMutability": "view",
      "type": "function"
    },
    {
      "inputs": [],
      "name": "getRilascioO",
      "outputs": [
        {
          "internalType": "address",
          "name": "",
          "type": "address"
        }
      ],
      "stateMutability": "view",
      "type": "function"
    },
    {
      "inputs": [],
      "name": "getRilascioY",
      "outputs": [
        {
          "internalType": "address",
          "name": "",
          "type": "address"
        }
      ],
      "stateMutability": "view",
      "type": "function"
    },
    {
      "inputs": [
        {
          "internalType": "address",
          "name": "owner",
          "type": "address"
        },
        {
          "internalType": "address",
          "name": "operator",
          "type": "address"
        }
      ],
      "name": "isApprovedForAll",
      "outputs": [
        {
          "internalType": "bool",
          "name": "",
          "type": "bool"
        }
      ],
      "stateMutability": "view",
      "type": "function"
    },
    {
      "inputs": [
        {
          "internalType": "address",
          "name": "_lender",
          "type": "address"
        },
        {
          "internalType": "uint256",
          "name": "_lockId",
          "type": "uint256"
        }
      ],
      "name": "mint",
      "outputs": [],
      "stateMutability": "nonpayable",
      "type": "function"
    },
    {
      "inputs": [],
      "name": "name",
      "outputs": [
        {
          "internalType": "string",
          "name": "",
          "type": "string"
        }
      ],
      "stateMutability": "view",
      "type": "function"
    },
    {
      "inputs": [
        {
          "internalType": "address",
          "name": "_operator",
          "type": "address"
        },
        {
          "internalType": "address",
          "name": "_from",
          "type": "address"
        },
        {
          "internalType": "uint256",
          "name": "_tokenId",
          "type": "uint256"
        },
        {
          "internalType": "bytes",
          "name": "_data",
          "type": "bytes"
        }
      ],
      "name": "onERC721Received",
      "outputs": [
        {
          "internalType": "bytes4",
          "name": "",
          "type": "bytes4"
        }
      ],
      "stateMutability": "view",
      "type": "function"
    },
    {
      "inputs": [],
      "name": "owner",
      "outputs": [
        {
          "internalType": "address",
          "name": "",
          "type": "address"
        }
      ],
      "stateMutability": "view",
      "type": "function"
    },
    {
      "inputs": [
        {
          "internalType": "uint256",
          "name": "tokenId",
          "type": "uint256"
        }
      ],
      "name": "ownerOf",
      "outputs": [
        {
          "internalType": "address",
          "name": "",
          "type": "address"
        }
      ],
      "stateMutability": "view",
      "type": "function"
    },
    {
      "inputs": [],
      "name": "renounceOwnership",
      "outputs": [],
      "stateMutability": "nonpayable",
      "type": "function"
    },
    {
      "inputs": [
        {
          "internalType": "address",
          "name": "from",
          "type": "address"
        },
        {
          "internalType": "address",
          "name": "to",
          "type": "address"
        },
        {
          "internalType": "uint256",
          "name": "tokenId",
          "type": "uint256"
        }
      ],
      "name": "safeTransferFrom",
      "outputs": [],
      "stateMutability": "nonpayable",
      "type": "function"
    },
    {
      "inputs": [
        {
          "internalType": "address",
          "name": "from",
          "type": "address"
        },
        {
          "internalType": "address",
          "name": "to",
          "type": "address"
        },
        {
          "internalType": "uint256",
          "name": "tokenId",
          "type": "uint256"
        },
        {
          "internalType": "bytes",
          "name": "_data",
          "type": "bytes"
        }
      ],
      "name": "safeTransferFrom",
      "outputs": [],
      "stateMutability": "nonpayable",
      "type": "function"
    },
    {
      "inputs": [
        {
          "internalType": "address",
          "name": "operator",
          "type": "address"
        },
        {
          "internalType": "bool",
          "name": "approved",
          "type": "bool"
        }
      ],
      "name": "setApprovalForAll",
      "outputs": [],
      "stateMutability": "nonpayable",
      "type": "function"
    },
    {
      "inputs": [
        {
          "internalType": "address",
          "name": "oNft_",
          "type": "address"
        }
      ],
      "name": "setRilascioO",
      "outputs": [],
      "stateMutability": "nonpayable",
      "type": "function"
    },
    {
      "inputs": [
        {
          "internalType": "address",
          "name": "yNft_",
          "type": "address"
        }
      ],
      "name": "setRilascioY",
      "outputs": [],
      "stateMutability": "nonpayable",
      "type": "function"
    },
    {
      "inputs": [
        {
          "internalType": "bytes4",
          "name": "interfaceId",
          "type": "bytes4"
        }
      ],
      "name": "supportsInterface",
      "outputs": [
        {
          "internalType": "bool",
          "name": "",
          "type": "bool"
        }
      ],
      "stateMutability": "view",
      "type": "function"
    },
    {
      "inputs": [],
      "name": "symbol",
      "outputs": [
        {
          "internalType": "string",
          "name": "",
          "type": "string"
        }
      ],
      "stateMutability": "view",
      "type": "function"
    },
    {
      "inputs": [
        {
          "internalType": "uint256",
          "name": "_lockId",
          "type": "uint256"
        }
      ],
      "name": "tokenURI",
      "outputs": [
        {
          "internalType": "string",
          "name": "",
          "type": "string"
        }
      ],
      "stateMutability": "view",
      "type": "function"
    },
    {
      "inputs": [
        {
          "internalType": "address",
          "name": "from",
          "type": "address"
        },
        {
          "internalType": "address",
          "name": "to",
          "type": "address"
        },
        {
          "internalType": "uint256",
          "name": "tokenId",
          "type": "uint256"
        }
      ],
      "name": "transferFrom",
      "outputs": [],
      "stateMutability": "nonpayable",
      "type": "function"
    },
    {
      "inputs": [
        {
          "internalType": "address",
          "name": "newOwner",
          "type": "address"
        }
      ],
      "name": "transferOwnership",
      "outputs": [],
      "stateMutability": "nonpayable",
      "type": "function"
    }
  ],
  "bytecode": "0x6080604052606460095566038d7ea4c68000600a556001600b556103e8600c553480156200002c57600080fd5b506040516200220f3803806200220f8339810160408190526200004f9162000213565b604080518082018252601581527f4f776e6572736869704e46542d52696c617363696f00000000000000000000006020808301918252835180850190945260048452631bd3919560e21b908401528151919291620000b0916000916200016d565b508051620000c69060019060208401906200016d565b505050620000e3620000dd6200011760201b60201c565b6200011b565b60088054336001600160a01b031991821617909155600f80549091166001600160a01b039290921691909117905562000282565b3390565b600780546001600160a01b038381166001600160a01b0319831681179093556040519116919082907f8be0079c531659141344cd1fd0a4f28419497f9722a3daafe3b4186f6b6457e090600090a35050565b8280546200017b9062000245565b90600052602060002090601f0160209004810192826200019f5760008555620001ea565b82601f10620001ba57805160ff1916838001178555620001ea565b82800160010185558215620001ea579182015b82811115620001ea578251825591602001919060010190620001cd565b50620001f8929150620001fc565b5090565b5b80821115620001f85760008155600101620001fd565b6000602082840312156200022657600080fd5b81516001600160a01b03811681146200023e57600080fd5b9392505050565b600181811c908216806200025a57607f821691505b602082108114156200027c57634e487b7160e01b600052602260045260246000fd5b50919050565b611f7d80620002926000396000f3fe608060405234801561001057600080fd5b50600436106101755760003560e01c806301ffc9a71461017a57806306fdde03146101a2578063081812fc146101b7578063095ea7b3146101d75780631336c631146101ec578063150b7a02146101ff5780632317da241461022b57806323b872dd1461023e57806340c10f191461025157806342842e0e1461026457806342966c68146102775780634b4921d61461028a5780634f558e791461029b578063569e1185146102ae5780636352211e146102c1578063651ebf7b146102d457806370a08231146102e7578063715018a6146103085780638da5cb5b146103105780638f2839701461031857806395d89b411461032b578063a22cb46514610333578063b0f475cd14610346578063b2e6b9121461034e578063b88d4fde1461035f578063bb89036214610372578063c1f56ef81461037a578063c87b56dd14610382578063ce498d0e14610395578063e985e9c5146103a6578063f2fde38b146103b9575b600080fd5b61018d61018836600461174a565b6103cc565b60405190151581526020015b60405180910390f35b6101aa61041e565b60405161019991906117c6565b6101ca6101c53660046117d9565b6104b0565b60405161019991906117f2565b6101ea6101e536600461181b565b61053d565b005b6101ea6101fa366004611847565b61064e565b61021261020d366004611864565b61069a565b6040516001600160e01b03199091168152602001610199565b6101ea6102393660046117d9565b610786565b6101ea61024c366004611902565b6107b5565b6101ea61025f36600461181b565b6107e6565b6101ea610272366004611902565b61086d565b6101ea6102853660046117d9565b610888565b600e546001600160a01b03166101ca565b61018d6102a93660046117d9565b6108be565b6101ea6102bc366004611847565b6108c9565b6101ca6102cf3660046117d9565b610915565b6101ea6102e23660046117d9565b61098c565b6102fa6102f5366004611847565b6109bb565b604051908152602001610199565b6101ea610a42565b6101ca610a7d565b6101ea610326366004611847565b610a8c565b6101aa610ad8565b6101ea610341366004611951565b610ae7565b600b546102fa565b6008546001600160a01b03166101ca565b6101ea61036d366004611a20565b610af2565b600a546102fa565b6009546102fa565b6101aa6103903660046117d9565b610b2a565b600d546001600160a01b03166101ca565b61018d6103b4366004611ace565b610d56565b6101ea6103c7366004611847565b610d84565b60006001600160e01b031982166380ac58cd60e01b14806103fd57506001600160e01b03198216635b5e139f60e01b145b8061041857506301ffc9a760e01b6001600160e01b03198316145b92915050565b60606000805461042d90611afc565b80601f016020809104026020016040519081016040528092919081815260200182805461045990611afc565b80156104a65780601f1061047b576101008083540402835291602001916104a6565b820191906000526020600020905b81548152906001019060200180831161048957829003601f168201915b5050505050905090565b60006104bb82610e21565b6105215760405162461bcd60e51b815260206004820152602c60248201527f4552433732313a20617070726f76656420717565727920666f72206e6f6e657860448201526b34b9ba32b73a103a37b5b2b760a11b60648201526084015b60405180910390fd5b506000908152600460205260409020546001600160a01b031690565b600061054882610915565b9050806001600160a01b0316836001600160a01b031614156105b65760405162461bcd60e51b815260206004820152602160248201527f4552433732313a20617070726f76616c20746f2063757272656e74206f776e656044820152603960f91b6064820152608401610518565b336001600160a01b03821614806105d257506105d28133610d56565b61063f5760405162461bcd60e51b815260206004820152603860248201527f4552433732313a20617070726f76652063616c6c6572206973206e6f74206f776044820152771b995c881b9bdc88185c1c1c9bdd995908199bdc88185b1b60421b6064820152608401610518565b6106498383610e3e565b505050565b6008546001600160a01b031633146106785760405162461bcd60e51b815260040161051890611b37565b600d80546001600160a01b0319166001600160a01b0392909216919091179055565b604051635a1ca64f60e01b815260009081903090635a1ca64f906106c29033906004016117f2565b60206040518083038186803b1580156106da57600080fd5b505afa1580156106ee573d6000803e3d6000fd5b505050506040513d601f19601f820116820180604052508101906107129190611b79565b6001600160a01b031614156107745760405162461bcd60e51b815260206004820152602260248201527f52696c617363696f3a205468697320546f6b656e206e6f7420537570706f7274604482015261195960f21b6064820152608401610518565b50630a85bd0160e11b95945050505050565b6008546001600160a01b031633146107b05760405162461bcd60e51b815260040161051890611b37565b600a55565b6107bf3382610eac565b6107db5760405162461bcd60e51b815260040161051890611b96565b610649838383610f76565b600f546001600160a01b031633146108105760405162461bcd60e51b815260040161051890611be7565b600f546001600160a01b0316331461085f5760405162461bcd60e51b81526020600482015260126024820152712cb7ba9030b932903737ba1036b4b73a32b960711b6044820152606401610518565b6108698282611100565b5050565b61064983838360405180602001604052806000815250610af2565b600f546001600160a01b031633146108b25760405162461bcd60e51b815260040161051890611be7565b6108bb8161111a565b50565b600061041882610e21565b6008546001600160a01b031633146108f35760405162461bcd60e51b815260040161051890611b37565b600e80546001600160a01b0319166001600160a01b0392909216919091179055565b6000818152600260205260408120546001600160a01b0316806104185760405162461bcd60e51b815260206004820152602960248201527f4552433732313a206f776e657220717565727920666f72206e6f6e657869737460448201526832b73a103a37b5b2b760b91b6064820152608401610518565b6008546001600160a01b031633146109b65760405162461bcd60e51b815260040161051890611b37565b600955565b60006001600160a01b038216610a265760405162461bcd60e51b815260206004820152602a60248201527f4552433732313a2062616c616e636520717565727920666f7220746865207a65604482015269726f206164647265737360b01b6064820152608401610518565b506001600160a01b031660009081526003602052604090205490565b33610a4b610a7d565b6001600160a01b031614610a715760405162461bcd60e51b815260040161051890611c1c565b610a7b600061115a565b565b6007546001600160a01b031690565b6008546001600160a01b03163314610ab65760405162461bcd60e51b815260040161051890611b37565b600880546001600160a01b0319166001600160a01b0392909216919091179055565b60606001805461042d90611afc565b6108693383836111ac565b610afc3383610eac565b610b185760405162461bcd60e51b815260040161051890611b96565b610b2484848484611277565b50505050565b6060610b3582610e21565b610b995760405162461bcd60e51b815260206004820152602f60248201527f4552433732314d657461646174613a2055524920717565727920666f72206e6f60448201526e3732bc34b9ba32b73a103a37b5b2b760891b6064820152608401610518565b600f5460405163d7cd28c760e01b8152600481018490526000916001600160a01b03169063d7cd28c7906024016101406040518083038186803b158015610bdf57600080fd5b505afa158015610bf3573d6000803e3d6000fd5b505050506040513d601f19601f82011682018060405250810190610c179190611c5c565b905060008082602001511115610c5757620151804283604001518460200151610c409190611d10565b610c4a9190611d28565b610c549190611d3f565b90505b8151602083015160408085015160c08601519151635382559d60e11b815260048101899052602481018690526044810194909452606484019290925260848301919091526001600160a01b031660a482015260009073__$f4973c6ce12a10493066cd2795d734e850$__9063a704ab3a9060c40160006040518083038186803b158015610ce357600080fd5b505af4158015610cf7573d6000803e3d6000fd5b505050506040513d6000823e601f3d908101601f19168201604052610d1f9190810190611d61565b90506000610d2c826112aa565b604051602001610d3c9190611dd7565b60408051601f198184030181529190529695505050505050565b6001600160a01b03918216600090815260056020908152604080832093909416825291909152205460ff1690565b33610d8d610a7d565b6001600160a01b031614610db35760405162461bcd60e51b815260040161051890611c1c565b6001600160a01b038116610e185760405162461bcd60e51b815260206004820152602660248201527f4f776e61626c653a206e6577206f776e657220697320746865207a65726f206160448201526564647265737360d01b6064820152608401610518565b6108bb8161115a565b6000908152600260205260409020546001600160a01b0316151590565b600081815260046020526040902080546001600160a01b0319166001600160a01b0384169081179091558190610e7382610915565b6001600160a01b03167f8c5be1e5ebec7d5bd14f71427d1e84f3dd0314c0f7b2291e5b200ac8c7c3b92560405160405180910390a45050565b6000610eb782610e21565b610f185760405162461bcd60e51b815260206004820152602c60248201527f4552433732313a206f70657261746f7220717565727920666f72206e6f6e657860448201526b34b9ba32b73a103a37b5b2b760a11b6064820152608401610518565b6000610f2383610915565b9050806001600160a01b0316846001600160a01b03161480610f4a5750610f4a8185610d56565b80610f6e5750836001600160a01b0316610f63846104b0565b6001600160a01b0316145b949350505050565b826001600160a01b0316610f8982610915565b6001600160a01b031614610fed5760405162461bcd60e51b815260206004820152602560248201527f4552433732313a207472616e736665722066726f6d20696e636f72726563742060448201526437bbb732b960d91b6064820152608401610518565b6001600160a01b03821661104f5760405162461bcd60e51b8152602060048201526024808201527f4552433732313a207472616e7366657220746f20746865207a65726f206164646044820152637265737360e01b6064820152608401610518565b61105a600082610e3e565b6001600160a01b0383166000908152600360205260408120805460019290611083908490611d28565b90915550506001600160a01b03821660009081526003602052604081208054600192906110b1908490611d10565b909155505060008181526002602052604080822080546001600160a01b0319166001600160a01b038681169182179092559151849391871691600080516020611f2883398151915291a4505050565b6108698282604051806020016040528060008152506113fd565b61112381611430565b6000818152600660205260409020805461113c90611afc565b1590506108bb5760008181526006602052604081206108bb916116e6565b600780546001600160a01b038381166001600160a01b0319831681179093556040519116919082907f8be0079c531659141344cd1fd0a4f28419497f9722a3daafe3b4186f6b6457e090600090a35050565b816001600160a01b0316836001600160a01b0316141561120a5760405162461bcd60e51b815260206004820152601960248201527822a9219b99189d1030b8383937bb32903a379031b0b63632b960391b6044820152606401610518565b6001600160a01b03838116600081815260056020908152604080832094871680845294825291829020805460ff191686151590811790915591519182527f17307eab39ab6107e8899845ad3d59bd9653f200f220920489ca2b5937696c31910160405180910390a3505050565b611282848484610f76565b61128e848484846114b9565b610b245760405162461bcd60e51b815260040161051890611e1c565b60608151600014156112ca57505060408051602081019091526000815290565b6000604051806060016040528060408152602001611ee860409139905060006003845160026112f99190611d10565b6113039190611d3f565b61130e906004611e6e565b6001600160401b038111156113255761132561198a565b6040519080825280601f01601f19166020018201604052801561134f576020820181803683370190505b509050600182016020820185865187015b808210156113bb576003820191508151603f8160121c168501518453600184019350603f81600c1c168501518453600184019350603f8160061c168501518453600184019350603f8116850151845350600183019250611360565b50506003865106600181146113d757600281146113ea576113f2565b603d6001830353603d60028303536113f2565b603d60018303535b509195945050505050565b61140783836115c6565b61141460008484846114b9565b6106495760405162461bcd60e51b815260040161051890611e1c565b600061143b82610915565b9050611448600083610e3e565b6001600160a01b0381166000908152600360205260408120805460019290611471908490611d28565b909155505060008281526002602052604080822080546001600160a01b0319169055518391906001600160a01b03841690600080516020611f28833981519152908390a45050565b60006001600160a01b0384163b156115bb57604051630a85bd0160e11b81526001600160a01b0385169063150b7a02906114fd903390899088908890600401611e8d565b602060405180830381600087803b15801561151757600080fd5b505af1925050508015611547575060408051601f3d908101601f1916820190925261154491810190611eca565b60015b6115a1573d808015611575576040519150601f19603f3d011682016040523d82523d6000602084013e61157a565b606091505b5080516115995760405162461bcd60e51b815260040161051890611e1c565b805181602001fd5b6001600160e01b031916630a85bd0160e11b149050610f6e565b506001949350505050565b6001600160a01b03821661161c5760405162461bcd60e51b815260206004820181905260248201527f4552433732313a206d696e7420746f20746865207a65726f20616464726573736044820152606401610518565b61162581610e21565b156116715760405162461bcd60e51b815260206004820152601c60248201527b115490cdcc8c4e881d1bdad95b88185b1c9958591e481b5a5b9d195960221b6044820152606401610518565b6001600160a01b038216600090815260036020526040812080546001929061169a908490611d10565b909155505060008181526002602052604080822080546001600160a01b0319166001600160a01b0386169081179091559051839290600080516020611f28833981519152908290a45050565b5080546116f290611afc565b6000825580601f10611702575050565b601f0160209004906000526020600020908101906108bb91905b80821115611730576000815560010161171c565b5090565b6001600160e01b0319811681146108bb57600080fd5b60006020828403121561175c57600080fd5b813561176781611734565b9392505050565b60005b83811015611789578181015183820152602001611771565b83811115610b245750506000910152565b600081518084526117b281602086016020860161176e565b601f01601f19169290920160200192915050565b602081526000611767602083018461179a565b6000602082840312156117eb57600080fd5b5035919050565b6001600160a01b0391909116815260200190565b6001600160a01b03811681146108bb57600080fd5b6000806040838503121561182e57600080fd5b823561183981611806565b946020939093013593505050565b60006020828403121561185957600080fd5b813561176781611806565b60008060008060006080868803121561187c57600080fd5b853561188781611806565b9450602086013561189781611806565b93506040860135925060608601356001600160401b03808211156118ba57600080fd5b818801915088601f8301126118ce57600080fd5b8135818111156118dd57600080fd5b8960208285010111156118ef57600080fd5b9699959850939650602001949392505050565b60008060006060848603121561191757600080fd5b833561192281611806565b9250602084013561193281611806565b929592945050506040919091013590565b80151581146108bb57600080fd5b6000806040838503121561196457600080fd5b823561196f81611806565b9150602083013561197f81611943565b809150509250929050565b634e487b7160e01b600052604160045260246000fd5b60405161014081016001600160401b03811182821017156119c3576119c361198a565b60405290565b604051601f8201601f191681016001600160401b03811182821017156119f1576119f161198a565b604052919050565b60006001600160401b03821115611a1257611a1261198a565b50601f01601f191660200190565b60008060008060808587031215611a3657600080fd5b8435611a4181611806565b93506020850135611a5181611806565b92506040850135915060608501356001600160401b03811115611a7357600080fd5b8501601f81018713611a8457600080fd5b8035611a97611a92826119f9565b6119c9565b818152886020838501011115611aac57600080fd5b8160208401602083013760006020838301015280935050505092959194509250565b60008060408385031215611ae157600080fd5b8235611aec81611806565b9150602083013561197f81611806565b600181811c90821680611b1057607f821691505b60208210811415611b3157634e487b7160e01b600052602260045260246000fd5b50919050565b60208082526018908201527737b7363c9037bbb732b91034b99030b63637bbb0b731b29760411b604082015260600190565b8051611b7481611806565b919050565b600060208284031215611b8b57600080fd5b815161176781611806565b60208082526031908201527f4552433732313a207472616e736665722063616c6c6572206973206e6f74206f6040820152701ddb995c881b9bdc88185c1c1c9bdd9959607a1b606082015260800190565b6020808252601b908201527a37b7363c903934b630b9b1b4b79034b99030b63637bbb0b731b29760291b604082015260600190565b6020808252818101527f4f776e61626c653a2063616c6c6572206973206e6f7420746865206f776e6572604082015260600190565b8051611b7481611943565b60006101408284031215611c6f57600080fd5b611c776119a0565b825181526020830151602082015260408301516040820152606083015160608201526080830151608082015260a083015160a0820152611cb960c08401611b69565b60c0820152611cca60e08401611b69565b60e0820152610100611cdd818501611b69565b90820152610120611cef848201611c51565b908201529392505050565b634e487b7160e01b600052601160045260246000fd5b60008219821115611d2357611d23611cfa565b500190565b600082821015611d3a57611d3a611cfa565b500390565b600082611d5c57634e487b7160e01b600052601260045260246000fd5b500490565b600060208284031215611d7357600080fd5b81516001600160401b03811115611d8957600080fd5b8201601f81018413611d9a57600080fd5b8051611da8611a92826119f9565b818152856020838501011115611dbd57600080fd5b611dce82602083016020860161176e565b95945050505050565b7f646174613a6170706c69636174696f6e2f6a736f6e3b6261736536342c000000815260008251611e0f81601d85016020870161176e565b91909101601d0192915050565b60208082526032908201527f4552433732313a207472616e7366657220746f206e6f6e20455243373231526560408201527131b2b4bb32b91034b6b83632b6b2b73a32b960711b606082015260800190565b6000816000190483118215151615611e8857611e88611cfa565b500290565b6001600160a01b0385811682528416602082015260408101839052608060608201819052600090611ec09083018461179a565b9695505050505050565b600060208284031215611edc57600080fd5b81516117678161173456fe4142434445464748494a4b4c4d4e4f505152535455565758595a6162636465666768696a6b6c6d6e6f707172737475767778797a303132333435363738392b2fddf252ad1be2c89b69c2b068fc378daa952ba7f163c4a11628f55a4df523b3efa2646970667358221220ffda517547de257d23fa7ebfa923664506c399509ae2d2095d32c6ec28b6a69f64736f6c63430008090033",
  "linkReferences": {
    "contracts/RilascioSVG.sol": {
      "RilascioSVG": [
        {
          "length": 20,
          "start": 3904
        }
      ]
    }
  },
  "deployedLinkReferences": {
    "contracts/RilascioSVG.sol": {
      "RilascioSVG": [
        {
          "length": 20,
          "start": 3246
        }
      ]
    }
  }
}