{
  "_format": "hh-sol-artifact-1",
  "contractName": "RilascioW",
  "sourceName": "contracts/RilascioW.sol",
  "abi": [
    {
      "inputs": [
        {
          "internalType": "string",
          "name": "_name",
          "type": "string"
        },
        {
          "internalType": "string",
          "name": "_symbol",
          "type": "string"
        }
      ],
      "stateMutability": "nonpayable",
      "type": "constructor"
    },
    {
      "anonymous": false,
      "inputs": [
        {
          "indexed": true,
          "internalType": "address",
          "name": "owner",
          "type": "address"
        },
        {
          "indexed": true,
          "internalType": "address",
          "name": "approved",
          "type": "address"
        },
        {
          "indexed": true,
          "internalType": "uint256",
          "name": "tokenId",
          "type": "uint256"
        }
      ],
      "name": "Approval",
      "type": "event"
    },
    {
      "anonymous": false,
      "inputs": [
        {
          "indexed": true,
          "internalType": "address",
          "name": "owner",
          "type": "address"
        },
        {
          "indexed": true,
          "internalType": "address",
          "name": "operator",
          "type": "address"
        },
        {
          "indexed": false,
          "internalType": "bool",
          "name": "approved",
          "type": "bool"
        }
      ],
      "name": "ApprovalForAll",
      "type": "event"
    },
    {
      "anonymous": false,
      "inputs": [
        {
          "indexed": true,
          "internalType": "address",
          "name": "previousOwner",
          "type": "address"
        },
        {
          "indexed": true,
          "internalType": "address",
          "name": "newOwner",
          "type": "address"
        }
      ],
      "name": "OwnershipTransferred",
      "type": "event"
    },
    {
      "anonymous": false,
      "inputs": [
        {
          "indexed": true,
          "internalType": "address",
          "name": "from",
          "type": "address"
        },
        {
          "indexed": true,
          "internalType": "address",
          "name": "to",
          "type": "address"
        },
        {
          "indexed": true,
          "internalType": "uint256",
          "name": "tokenId",
          "type": "uint256"
        }
      ],
      "name": "Transfer",
      "type": "event"
    },
    {
      "inputs": [
        {
          "internalType": "address",
          "name": "to",
          "type": "address"
        },
        {
          "internalType": "uint256",
          "name": "tokenId",
          "type": "uint256"
        }
      ],
      "name": "approve",
      "outputs": [],
      "stateMutability": "nonpayable",
      "type": "function"
    },
    {
      "inputs": [
        {
          "internalType": "address",
          "name": "owner",
          "type": "address"
        }
      ],
      "name": "balanceOf",
      "outputs": [
        {
          "internalType": "uint256",
          "name": "",
          "type": "uint256"
        }
      ],
      "stateMutability": "view",
      "type": "function"
    },
    {
      "inputs": [
        {
          "internalType": "uint256",
          "name": "_tokenId",
          "type": "uint256"
        }
      ],
      "name": "burn",
      "outputs": [],
      "stateMutability": "nonpayable",
      "type": "function"
    },
    {
      "inputs": [
        {
          "internalType": "address",
          "name": "_address",
          "type": "address"
        }
      ],
      "name": "changeAdmin",
      "outputs": [],
      "stateMutability": "nonpayable",
      "type": "function"
    },
    {
      "inputs": [
        {
          "internalType": "uint256",
          "name": "adminRoyalty_",
          "type": "uint256"
        }
      ],
      "name": "changeAdminRoyalty",
      "outputs": [],
      "stateMutability": "nonpayable",
      "type": "function"
    },
    {
      "inputs": [
        {
          "internalType": "uint256",
          "name": "_fee",
          "type": "uint256"
        }
      ],
      "name": "changeMinimumRentalFee",
      "outputs": [],
      "stateMutability": "nonpayable",
      "type": "function"
    },
    {
      "inputs": [
        {
          "internalType": "address",
          "name": "_from",
          "type": "address"
        },
        {
          "internalType": "address",
          "name": "_to",
          "type": "address"
        },
        {
          "internalType": "uint256",
          "name": "_tokenId",
          "type": "uint256"
        }
      ],
      "name": "emitTransfer",
      "outputs": [],
      "stateMutability": "nonpayable",
      "type": "function"
    },
    {
      "inputs": [],
      "name": "getAdminAddress",
      "outputs": [
        {
          "internalType": "address",
          "name": "",
          "type": "address"
        }
      ],
      "stateMutability": "view",
      "type": "function"
    },
    {
      "inputs": [],
      "name": "getAdminRoyalty",
      "outputs": [
        {
          "internalType": "uint256",
          "name": "",
          "type": "uint256"
        }
      ],
      "stateMutability": "view",
      "type": "function"
    },
    {
      "inputs": [
        {
          "internalType": "uint256",
          "name": "tokenId",
          "type": "uint256"
        }
      ],
      "name": "getApproved",
      "outputs": [
        {
          "internalType": "address",
          "name": "",
          "type": "address"
        }
      ],
      "stateMutability": "view",
      "type": "function"
    },
    {
      "inputs": [],
      "name": "getMinimumRentalDuration",
      "outputs": [
        {
          "internalType": "uint256",
          "name": "",
          "type": "uint256"
        }
      ],
      "stateMutability": "view",
      "type": "function"
    },
    {
      "inputs": [],
      "name": "getMinimumRentalFee",
      "outputs": [
        {
          "internalType": "uint256",
          "name": "",
          "type": "uint256"
        }
      ],
      "stateMutability": "view",
      "type": "function"
    },
    {
      "inputs": [],
      "name": "getRilascioO",
      "outputs": [
        {
          "internalType": "address",
          "name": "",
          "type": "address"
        }
      ],
      "stateMutability": "view",
      "type": "function"
    },
    {
      "inputs": [],
      "name": "getRilascioY",
      "outputs": [
        {
          "internalType": "address",
          "name": "",
          "type": "address"
        }
      ],
      "stateMutability": "view",
      "type": "function"
    },
    {
      "inputs": [
        {
          "internalType": "address",
          "name": "owner",
          "type": "address"
        },
        {
          "internalType": "address",
          "name": "operator",
          "type": "address"
        }
      ],
      "name": "isApprovedForAll",
      "outputs": [
        {
          "internalType": "bool",
          "name": "",
          "type": "bool"
        }
      ],
      "stateMutability": "view",
      "type": "function"
    },
    {
      "inputs": [],
      "name": "name",
      "outputs": [
        {
          "internalType": "string",
          "name": "",
          "type": "string"
        }
      ],
      "stateMutability": "view",
      "type": "function"
    },
    {
      "inputs": [
        {
          "internalType": "address",
          "name": "_operator",
          "type": "address"
        },
        {
          "internalType": "address",
          "name": "_from",
          "type": "address"
        },
        {
          "internalType": "uint256",
          "name": "_tokenId",
          "type": "uint256"
        },
        {
          "internalType": "bytes",
          "name": "_data",
          "type": "bytes"
        }
      ],
      "name": "onERC721Received",
      "outputs": [
        {
          "internalType": "bytes4",
          "name": "",
          "type": "bytes4"
        }
      ],
      "stateMutability": "view",
      "type": "function"
    },
    {
      "inputs": [],
      "name": "owner",
      "outputs": [
        {
          "internalType": "address",
          "name": "",
          "type": "address"
        }
      ],
      "stateMutability": "view",
      "type": "function"
    },
    {
      "inputs": [
        {
          "internalType": "uint256",
          "name": "_tokenId",
          "type": "uint256"
        }
      ],
      "name": "ownerOf",
      "outputs": [
        {
          "internalType": "address",
          "name": "",
          "type": "address"
        }
      ],
      "stateMutability": "view",
      "type": "function"
    },
    {
      "inputs": [],
      "name": "renounceOwnership",
      "outputs": [],
      "stateMutability": "nonpayable",
      "type": "function"
    },
    {
      "inputs": [
        {
          "internalType": "address",
          "name": "from",
          "type": "address"
        },
        {
          "internalType": "address",
          "name": "to",
          "type": "address"
        },
        {
          "internalType": "uint256",
          "name": "tokenId",
          "type": "uint256"
        }
      ],
      "name": "safeTransferFrom",
      "outputs": [],
      "stateMutability": "nonpayable",
      "type": "function"
    },
    {
      "inputs": [
        {
          "internalType": "address",
          "name": "from",
          "type": "address"
        },
        {
          "internalType": "address",
          "name": "to",
          "type": "address"
        },
        {
          "internalType": "uint256",
          "name": "tokenId",
          "type": "uint256"
        },
        {
          "internalType": "bytes",
          "name": "_data",
          "type": "bytes"
        }
      ],
      "name": "safeTransferFrom",
      "outputs": [],
      "stateMutability": "nonpayable",
      "type": "function"
    },
    {
      "inputs": [
        {
          "internalType": "address",
          "name": "operator",
          "type": "address"
        },
        {
          "internalType": "bool",
          "name": "approved",
          "type": "bool"
        }
      ],
      "name": "setApprovalForAll",
      "outputs": [],
      "stateMutability": "nonpayable",
      "type": "function"
    },
    {
      "inputs": [
        {
          "internalType": "address",
          "name": "oNft_",
          "type": "address"
        }
      ],
      "name": "setRilascioO",
      "outputs": [],
      "stateMutability": "nonpayable",
      "type": "function"
    },
    {
      "inputs": [
        {
          "internalType": "address",
          "name": "yNft_",
          "type": "address"
        }
      ],
      "name": "setRilascioY",
      "outputs": [],
      "stateMutability": "nonpayable",
      "type": "function"
    },
    {
      "inputs": [
        {
          "internalType": "bytes4",
          "name": "interfaceId",
          "type": "bytes4"
        }
      ],
      "name": "supportsInterface",
      "outputs": [
        {
          "internalType": "bool",
          "name": "",
          "type": "bool"
        }
      ],
      "stateMutability": "view",
      "type": "function"
    },
    {
      "inputs": [],
      "name": "symbol",
      "outputs": [
        {
          "internalType": "string",
          "name": "",
          "type": "string"
        }
      ],
      "stateMutability": "view",
      "type": "function"
    },
    {
      "inputs": [
        {
          "internalType": "uint256",
          "name": "_tokenId",
          "type": "uint256"
        }
      ],
      "name": "tokenURI",
      "outputs": [
        {
          "internalType": "string",
          "name": "",
          "type": "string"
        }
      ],
      "stateMutability": "view",
      "type": "function"
    },
    {
      "inputs": [
        {
          "internalType": "address",
          "name": "from",
          "type": "address"
        },
        {
          "internalType": "address",
          "name": "to",
          "type": "address"
        },
        {
          "internalType": "uint256",
          "name": "tokenId",
          "type": "uint256"
        }
      ],
      "name": "transferFrom",
      "outputs": [],
      "stateMutability": "nonpayable",
      "type": "function"
    },
    {
      "inputs": [
        {
          "internalType": "address",
          "name": "newOwner",
          "type": "address"
        }
      ],
      "name": "transferOwnership",
      "outputs": [],
      "stateMutability": "nonpayable",
      "type": "function"
    }
  ],
  "bytecode": "0x6080604052606460095566038d7ea4c68000600a556001600b556103e8600c553480156200002c57600080fd5b50604051620027e1380380620027e18339810160408190526200004f916200028e565b815182908290620000689060009060208501906200011b565b5080516200007e9060019060208401906200011b565b5050506200009b62000095620000c560201b60201c565b620000c9565b505060088054336001600160a01b03199182168117909255600f8054909116909117905562000335565b3390565b600780546001600160a01b038381166001600160a01b0319831681179093556040519116919082907f8be0079c531659141344cd1fd0a4f28419497f9722a3daafe3b4186f6b6457e090600090a35050565b8280546200012990620002f8565b90600052602060002090601f0160209004810192826200014d576000855562000198565b82601f106200016857805160ff191683800117855562000198565b8280016001018555821562000198579182015b82811115620001985782518255916020019190600101906200017b565b50620001a6929150620001aa565b5090565b5b80821115620001a65760008155600101620001ab565b634e487b7160e01b600052604160045260246000fd5b600082601f830112620001e957600080fd5b81516001600160401b0380821115620002065762000206620001c1565b604051601f8301601f19908116603f01168101908282118183101715620002315762000231620001c1565b816040528381526020925086838588010111156200024e57600080fd5b600091505b8382101562000272578582018301518183018401529082019062000253565b83821115620002845760008385830101525b9695505050505050565b60008060408385031215620002a257600080fd5b82516001600160401b0380821115620002ba57600080fd5b620002c886838701620001d7565b93506020850151915080821115620002df57600080fd5b50620002ee85828601620001d7565b9150509250929050565b600181811c908216806200030d57607f821691505b602082108114156200032f57634e487b7160e01b600052602260045260246000fd5b50919050565b61249c80620003456000396000f3fe608060405234801561001057600080fd5b506004361061016a5760003560e01c806301ffc9a71461016f57806306fdde0314610197578063081812fc146101ac578063095ea7b3146101cc5780631336c631146101e1578063150b7a02146101f45780632317da241461022057806323b872dd1461023357806323de66511461024657806342842e0e1461025957806342966c681461026c5780634b4921d61461027f578063569e1185146102905780636352211e146102a3578063651ebf7b146102b657806370a08231146102c9578063715018a6146102ea5780638da5cb5b146102f25780638f283970146102fa57806395d89b411461030d578063a22cb46514610315578063b0f475cd14610328578063b2e6b91214610330578063b88d4fde14610341578063bb89036214610354578063c1f56ef81461035c578063c87b56dd14610364578063ce498d0e14610377578063e985e9c514610388578063f2fde38b1461039b575b600080fd5b61018261017d366004611be0565b6103ae565b60405190151581526020015b60405180910390f35b61019f610400565b60405161018e9190611c5c565b6101bf6101ba366004611c6f565b610492565b60405161018e9190611c88565b6101df6101da366004611cb1565b61051f565b005b6101df6101ef366004611cdd565b610630565b610207610202366004611cfa565b61067c565b6040516001600160e01b0319909116815260200161018e565b6101df61022e366004611c6f565b610768565b6101df610241366004611d98565b610797565b6101df610254366004611d98565b6107c8565b6101df610267366004611d98565b610826565b6101df61027a366004611c6f565b610841565b600e546001600160a01b03166101bf565b6101df61029e366004611cdd565b610877565b6101bf6102b1366004611c6f565b6108c3565b6101df6102c4366004611c6f565b610a76565b6102dc6102d7366004611cdd565b610aa5565b60405190815260200161018e565b6101df610b2c565b6101bf610b67565b6101df610308366004611cdd565b610b76565b61019f610bc2565b6101df610323366004611de7565b610bd1565b600b546102dc565b6008546001600160a01b03166101bf565b6101df61034f366004611eb6565b610be0565b600a546102dc565b6009546102dc565b61019f610372366004611c6f565b610c18565b600d546001600160a01b03166101bf565b610182610396366004611f64565b611076565b6101df6103a9366004611cdd565b6110a4565b60006001600160e01b031982166380ac58cd60e01b14806103df57506001600160e01b03198216635b5e139f60e01b145b806103fa57506301ffc9a760e01b6001600160e01b03198316145b92915050565b60606000805461040f90611f92565b80601f016020809104026020016040519081016040528092919081815260200182805461043b90611f92565b80156104885780601f1061045d57610100808354040283529160200191610488565b820191906000526020600020905b81548152906001019060200180831161046b57829003601f168201915b5050505050905090565b600061049d82611141565b6105035760405162461bcd60e51b815260206004820152602c60248201527f4552433732313a20617070726f76656420717565727920666f72206e6f6e657860448201526b34b9ba32b73a103a37b5b2b760a11b60648201526084015b60405180910390fd5b506000908152600460205260409020546001600160a01b031690565b600061052a82611343565b9050806001600160a01b0316836001600160a01b031614156105985760405162461bcd60e51b815260206004820152602160248201527f4552433732313a20617070726f76616c20746f2063757272656e74206f776e656044820152603960f91b60648201526084016104fa565b336001600160a01b03821614806105b457506105b48133611076565b6106215760405162461bcd60e51b815260206004820152603860248201527f4552433732313a20617070726f76652063616c6c6572206973206e6f74206f776044820152771b995c881b9bdc88185c1c1c9bdd995908199bdc88185b1b60421b60648201526084016104fa565b61062b83836113ba565b505050565b6008546001600160a01b0316331461065a5760405162461bcd60e51b81526004016104fa90611fcd565b600d80546001600160a01b0319166001600160a01b0392909216919091179055565b604051635a1ca64f60e01b815260009081903090635a1ca64f906106a4903390600401611c88565b60206040518083038186803b1580156106bc57600080fd5b505afa1580156106d0573d6000803e3d6000fd5b505050506040513d601f19601f820116820180604052508101906106f4919061200f565b6001600160a01b031614156107565760405162461bcd60e51b815260206004820152602260248201527f52696c617363696f3a205468697320546f6b656e206e6f7420537570706f7274604482015261195960f21b60648201526084016104fa565b50630a85bd0160e11b95945050505050565b6008546001600160a01b031633146107925760405162461bcd60e51b81526004016104fa90611fcd565b600a55565b6107a13382611428565b6107bd5760405162461bcd60e51b81526004016104fa9061202c565b61062b8383836114f2565b600f546001600160a01b031633146107f25760405162461bcd60e51b81526004016104fa9061207d565b80826001600160a01b0316846001600160a01b031660008051602061244783398151915260405160405180910390a4505050565b61062b83838360405180602001604052806000815250610be0565b600f546001600160a01b0316331461086b5760405162461bcd60e51b81526004016104fa9061207d565b61087481611579565b50565b6008546001600160a01b031633146108a15760405162461bcd60e51b81526004016104fa90611fcd565b600e80546001600160a01b0319166001600160a01b0392909216919091179055565b600f54604051632a58cd8960e11b815260009182916001600160a01b03909116906354b19b12906108fa90309087906004016120b2565b60206040518083038186803b15801561091257600080fd5b505afa158015610926573d6000803e3d6000fd5b505050506040513d601f19601f8201168201806040525081019061094a91906120cb565b600f546040516313950e9b60e31b8152600481018390529192506000916001600160a01b0390911690639ca874d89060240160606040518083038186803b15801561099457600080fd5b505afa1580156109a8573d6000803e3d6000fd5b505050506040513d601f19601f820116820180604052508101906109cc91906120e4565b60200151905042811115610a6257600f546040516313950e9b60e31b8152600481018490526001600160a01b0390911690639ca874d89060240160606040518083038186803b158015610a1e57600080fd5b505afa158015610a32573d6000803e3d6000fd5b505050506040513d601f19601f82011682018060405250810190610a5691906120e4565b60400151949350505050565b5050600f546001600160a01b031692915050565b6008546001600160a01b03163314610aa05760405162461bcd60e51b81526004016104fa90611fcd565b600955565b60006001600160a01b038216610b105760405162461bcd60e51b815260206004820152602a60248201527f4552433732313a2062616c616e636520717565727920666f7220746865207a65604482015269726f206164647265737360b01b60648201526084016104fa565b506001600160a01b031660009081526003602052604090205490565b33610b35610b67565b6001600160a01b031614610b5b5760405162461bcd60e51b81526004016104fa90612145565b610b6560006115b9565b565b6007546001600160a01b031690565b6008546001600160a01b03163314610ba05760405162461bcd60e51b81526004016104fa90611fcd565b600880546001600160a01b0319166001600160a01b0392909216919091179055565b60606001805461040f90611f92565b610bdc33838361160b565b5050565b610bea3383611428565b610c065760405162461bcd60e51b81526004016104fa9061202c565b610c12848484846116d6565b50505050565b600f54604051632a58cd8960e11b81526060916000916001600160a01b03909116906354b19b1290610c5090309087906004016120b2565b60206040518083038186803b158015610c6857600080fd5b505afa158015610c7c573d6000803e3d6000fd5b505050506040513d601f19601f82011682018060405250810190610ca091906120cb565b600f546040516313950e9b60e31b8152600481018390529192506000916001600160a01b0390911690639ca874d89060240160606040518083038186803b158015610cea57600080fd5b505afa158015610cfe573d6000803e3d6000fd5b505050506040513d601f19601f82011682018060405250810190610d2291906120e4565b60200151600f546040516368a9bcb160e11b8152600481018590529192506000916001600160a01b039091169063d15379629060240160206040518083038186803b158015610d7057600080fd5b505afa158015610d84573d6000803e3d6000fd5b505050506040513d601f19601f82011682018060405250810190610da891906120cb565b600f5460405163d7cd28c760e01b8152600481018390529192506000916001600160a01b039091169063d7cd28c7906024016101406040518083038186803b158015610df357600080fd5b505afa158015610e07573d6000803e3d6000fd5b505050506040513d601f19601f82011682018060405250810190610e2b9190612185565b9050610e3686611141565b610e9a5760405162461bcd60e51b815260206004820152602f60248201527f4552433732314d657461646174613a2055524920717565727920666f72206e6f60448201526e3732bc34b9ba32b73a103a37b5b2b760891b60648201526084016104fa565b42831115610f2e5760c081015160405163c87b56dd60e01b8152600481018890526001600160a01b039091169063c87b56dd9060240160006040518083038186803b158015610ee857600080fd5b505afa158015610efc573d6000803e3d6000fd5b505050506040513d6000823e601f3d908101601f19168201604052610f249190810190612223565b9695505050505050565b600060405160200161102e907f7b226e616d65223a2022777261707065644e4654202d2052696c617363696f2281527f2c20226465736372697074696f6e223a2022577261707065644e46542069732060208201527f77726170706564206f726967696e616c204e4654206465706f7369746564206260408201527f79204c656e64657220696e20612052696c617363696f20457363726f772e205760608201527f68656e2072656e74616c2068617320626567616e2c2074686973204e4654207760808201527f696c6c206c696e6b20746f204f726967696e616c204e4654206d65746164617460a082015263612e227d60e01b60c082015260c40190565b6040516020818303038152906040529050600061104a82611709565b60405160200161105a9190612299565b60408051601f1981840301815291905298975050505050505050565b6001600160a01b03918216600090815260056020908152604080832093909416825291909152205460ff1690565b336110ad610b67565b6001600160a01b0316146110d35760405162461bcd60e51b81526004016104fa90612145565b6001600160a01b0381166111385760405162461bcd60e51b815260206004820152602660248201527f4f776e61626c653a206e6577206f776e657220697320746865207a65726f206160448201526564647265737360d01b60648201526084016104fa565b610874816115b9565b600f54604051632a58cd8960e11b815260009182916001600160a01b039091169063d7cd28c790829063d15379629082906354b19b12906111889030908b906004016120b2565b60206040518083038186803b1580156111a057600080fd5b505afa1580156111b4573d6000803e3d6000fd5b505050506040513d601f19601f820116820180604052508101906111d891906120cb565b6040518263ffffffff1660e01b81526004016111f691815260200190565b60206040518083038186803b15801561120e57600080fd5b505afa158015611222573d6000803e3d6000fd5b505050506040513d601f19601f8201168201806040525081019061124691906120cb565b6040518263ffffffff1660e01b815260040161126491815260200190565b6101406040518083038186803b15801561127d57600080fd5b505afa158015611291573d6000803e3d6000fd5b505050506040513d601f19601f820116820180604052508101906112b59190612185565b60c001516040516331a9108f60e11b8152600481018590526001600160a01b0390911690636352211e9060240160206040518083038186803b1580156112fa57600080fd5b505afa15801561130e573d6000803e3d6000fd5b505050506040513d601f19601f82011682018060405250810190611332919061200f565b6001600160a01b0316141592915050565b6000818152600260205260408120546001600160a01b0316806103fa5760405162461bcd60e51b815260206004820152602960248201527f4552433732313a206f776e657220717565727920666f72206e6f6e657869737460448201526832b73a103a37b5b2b760b91b60648201526084016104fa565b600081815260046020526040902080546001600160a01b0319166001600160a01b03841690811790915581906113ef82611343565b6001600160a01b03167f8c5be1e5ebec7d5bd14f71427d1e84f3dd0314c0f7b2291e5b200ac8c7c3b92560405160405180910390a45050565b600061143382611141565b6114945760405162461bcd60e51b815260206004820152602c60248201527f4552433732313a206f70657261746f7220717565727920666f72206e6f6e657860448201526b34b9ba32b73a103a37b5b2b760a11b60648201526084016104fa565b600061149f83611343565b9050806001600160a01b0316846001600160a01b031614806114c657506114c68185611076565b806114ea5750836001600160a01b03166114df84610492565b6001600160a01b0316145b949350505050565b600f546001600160a01b0384811691161461156e5760405162461bcd60e51b815260206004820152603660248201527f57726170706564204e46542043414e205472616e73666572206173205032432e6044820152751027379039bab83837b93a39903bb4ba34102819281760511b60648201526084016104fa565b61062b83838361185c565b611582816119e6565b6000818152600660205260409020805461159b90611f92565b15905061087457600081815260066020526040812061087491611b7c565b600780546001600160a01b038381166001600160a01b0319831681179093556040519116919082907f8be0079c531659141344cd1fd0a4f28419497f9722a3daafe3b4186f6b6457e090600090a35050565b816001600160a01b0316836001600160a01b031614156116695760405162461bcd60e51b815260206004820152601960248201527822a9219b99189d1030b8383937bb32903a379031b0b63632b960391b60448201526064016104fa565b6001600160a01b03838116600081815260056020908152604080832094871680845294825291829020805460ff191686151590811790915591519182527f17307eab39ab6107e8899845ad3d59bd9653f200f220920489ca2b5937696c31910160405180910390a3505050565b6116e18484846114f2565b6116ed84848484611a6f565b610c125760405162461bcd60e51b81526004016104fa906122de565b606081516000141561172957505060408051602081019091526000815290565b600060405180606001604052806040815260200161240760409139905060006003845160026117589190612346565b611762919061235e565b61176d906004612380565b6001600160401b0381111561178457611784611e20565b6040519080825280601f01601f1916602001820160405280156117ae576020820181803683370190505b509050600182016020820185865187015b8082101561181a576003820191508151603f8160121c168501518453600184019350603f81600c1c168501518453600184019350603f8160061c168501518453600184019350603f81168501518453506001830192506117bf565b5050600386510660018114611836576002811461184957611851565b603d6001830353603d6002830353611851565b603d60018303535b509195945050505050565b826001600160a01b031661186f82611343565b6001600160a01b0316146118d35760405162461bcd60e51b815260206004820152602560248201527f4552433732313a207472616e736665722066726f6d20696e636f72726563742060448201526437bbb732b960d91b60648201526084016104fa565b6001600160a01b0382166119355760405162461bcd60e51b8152602060048201526024808201527f4552433732313a207472616e7366657220746f20746865207a65726f206164646044820152637265737360e01b60648201526084016104fa565b6119406000826113ba565b6001600160a01b038316600090815260036020526040812080546001929061196990849061239f565b90915550506001600160a01b0382166000908152600360205260408120805460019290611997908490612346565b909155505060008181526002602052604080822080546001600160a01b0319166001600160a01b03868116918217909255915184939187169160008051602061244783398151915291a4505050565b60006119f182611343565b90506119fe6000836113ba565b6001600160a01b0381166000908152600360205260408120805460019290611a2790849061239f565b909155505060008281526002602052604080822080546001600160a01b0319169055518391906001600160a01b03841690600080516020612447833981519152908390a45050565b60006001600160a01b0384163b15611b7157604051630a85bd0160e11b81526001600160a01b0385169063150b7a0290611ab39033908990889088906004016123b6565b602060405180830381600087803b158015611acd57600080fd5b505af1925050508015611afd575060408051601f3d908101601f19168201909252611afa918101906123e9565b60015b611b57573d808015611b2b576040519150601f19603f3d011682016040523d82523d6000602084013e611b30565b606091505b508051611b4f5760405162461bcd60e51b81526004016104fa906122de565b805181602001fd5b6001600160e01b031916630a85bd0160e11b1490506114ea565b506001949350505050565b508054611b8890611f92565b6000825580601f10611b98575050565b601f01602090049060005260206000209081019061087491905b80821115611bc65760008155600101611bb2565b5090565b6001600160e01b03198116811461087457600080fd5b600060208284031215611bf257600080fd5b8135611bfd81611bca565b9392505050565b60005b83811015611c1f578181015183820152602001611c07565b83811115610c125750506000910152565b60008151808452611c48816020860160208601611c04565b601f01601f19169290920160200192915050565b602081526000611bfd6020830184611c30565b600060208284031215611c8157600080fd5b5035919050565b6001600160a01b0391909116815260200190565b6001600160a01b038116811461087457600080fd5b60008060408385031215611cc457600080fd5b8235611ccf81611c9c565b946020939093013593505050565b600060208284031215611cef57600080fd5b8135611bfd81611c9c565b600080600080600060808688031215611d1257600080fd5b8535611d1d81611c9c565b94506020860135611d2d81611c9c565b93506040860135925060608601356001600160401b0380821115611d5057600080fd5b818801915088601f830112611d6457600080fd5b813581811115611d7357600080fd5b896020828501011115611d8557600080fd5b9699959850939650602001949392505050565b600080600060608486031215611dad57600080fd5b8335611db881611c9c565b92506020840135611dc881611c9c565b929592945050506040919091013590565b801515811461087457600080fd5b60008060408385031215611dfa57600080fd5b8235611e0581611c9c565b91506020830135611e1581611dd9565b809150509250929050565b634e487b7160e01b600052604160045260246000fd5b60405161014081016001600160401b0381118282101715611e5957611e59611e20565b60405290565b604051601f8201601f191681016001600160401b0381118282101715611e8757611e87611e20565b604052919050565b60006001600160401b03821115611ea857611ea8611e20565b50601f01601f191660200190565b60008060008060808587031215611ecc57600080fd5b8435611ed781611c9c565b93506020850135611ee781611c9c565b92506040850135915060608501356001600160401b03811115611f0957600080fd5b8501601f81018713611f1a57600080fd5b8035611f2d611f2882611e8f565b611e5f565b818152886020838501011115611f4257600080fd5b8160208401602083013760006020838301015280935050505092959194509250565b60008060408385031215611f7757600080fd5b8235611f8281611c9c565b91506020830135611e1581611c9c565b600181811c90821680611fa657607f821691505b60208210811415611fc757634e487b7160e01b600052602260045260246000fd5b50919050565b60208082526018908201527737b7363c9037bbb732b91034b99030b63637bbb0b731b29760411b604082015260600190565b805161200a81611c9c565b919050565b60006020828403121561202157600080fd5b8151611bfd81611c9c565b60208082526031908201527f4552433732313a207472616e736665722063616c6c6572206973206e6f74206f6040820152701ddb995c881b9bdc88185c1c1c9bdd9959607a1b606082015260800190565b6020808252601b908201527a37b7363c903934b630b9b1b4b79034b99030b63637bbb0b731b29760291b604082015260600190565b6001600160a01b03929092168252602082015260400190565b6000602082840312156120dd57600080fd5b5051919050565b6000606082840312156120f657600080fd5b604051606081016001600160401b038111828210171561211857612118611e20565b80604052508251815260208301516020820152604083015161213981611c9c565b60408201529392505050565b6020808252818101527f4f776e61626c653a2063616c6c6572206973206e6f7420746865206f776e6572604082015260600190565b805161200a81611dd9565b6000610140828403121561219857600080fd5b6121a0611e36565b825181526020830151602082015260408301516040820152606083015160608201526080830151608082015260a083015160a08201526121e260c08401611fff565b60c08201526121f360e08401611fff565b60e0820152610100612206818501611fff565b9082015261012061221884820161217a565b908201529392505050565b60006020828403121561223557600080fd5b81516001600160401b0381111561224b57600080fd5b8201601f8101841361225c57600080fd5b805161226a611f2882611e8f565b81815285602083850101111561227f57600080fd5b612290826020830160208601611c04565b95945050505050565b7f646174613a6170706c69636174696f6e2f6a736f6e3b6261736536342c0000008152600082516122d181601d850160208701611c04565b91909101601d0192915050565b60208082526032908201527f4552433732313a207472616e7366657220746f206e6f6e20455243373231526560408201527131b2b4bb32b91034b6b83632b6b2b73a32b960711b606082015260800190565b634e487b7160e01b600052601160045260246000fd5b6000821982111561235957612359612330565b500190565b60008261237b57634e487b7160e01b600052601260045260246000fd5b500490565b600081600019048311821515161561239a5761239a612330565b500290565b6000828210156123b1576123b1612330565b500390565b6001600160a01b0385811682528416602082015260408101839052608060608201819052600090610f2490830184611c30565b6000602082840312156123fb57600080fd5b8151611bfd81611bca56fe4142434445464748494a4b4c4d4e4f505152535455565758595a6162636465666768696a6b6c6d6e6f707172737475767778797a303132333435363738392b2fddf252ad1be2c89b69c2b068fc378daa952ba7f163c4a11628f55a4df523b3efa2646970667358221220fa6885391eb11ac5414430d612a0c7ad6b186c1ef79292b0d8215cb1aefa4bd964736f6c63430008090033",
  "linkReferences": {},
  "deployedLinkReferences": {}
}