{
  "_format": "hh-sol-artifact-1",
  "contractName": "RilascioSVG",
  "sourceName": "contracts/RilascioSVG.sol",
  "abi": [
    {
      "inputs": [
        {
          "internalType": "uint256",
          "name": "_lockId",
          "type": "uint256"
        },
        {
          "internalType": "uint256",
          "name": "_untilTime",
          "type": "uint256"
        },
        {
          "internalType": "uint256",
          "name": "_toLockNftId",
          "type": "uint256"
        },
        {
          "internalType": "uint256",
          "name": "_lockStartDate",
          "type": "uint256"
        },
        {
          "internalType": "uint256",
          "name": "_lockDuration",
          "type": "uint256"
        },
        {
          "internalType": "address",
          "name": "_toLockNftContract",
          "type": "address"
        }
      ],
      "name": "getOwnershipSVG",
      "outputs": [
        {
          "internalType": "bytes",
          "name": "",
          "type": "bytes"
        }
      ],
      "stateMutability": "view",
      "type": "function"
    },
    {
      "inputs": [
        {
          "internalType": "uint256",
          "name": "_lockId",
          "type": "uint256"
        },
        {
          "internalType": "uint256",
          "name": "_toLockNftId",
          "type": "uint256"
        },
        {
          "internalType": "uint256",
          "name": "_amount",
          "type": "uint256"
        },
        {
          "internalType": "uint256",
          "name": "_lockStartDate",
          "type": "uint256"
        },
        {
          "internalType": "uint256",
          "name": "_lockDuration",
          "type": "uint256"
        },
        {
          "internalType": "address",
          "name": "_paymentTokenAddress",
          "type": "address"
        },
        {
          "internalType": "address",
          "name": "_toLockNftContract",
          "type": "address"
        }
      ],
      "name": "getYieldSVG",
      "outputs": [
        {
          "internalType": "bytes",
          "name": "",
          "type": "bytes"
        }
      ],
      "stateMutability": "view",
      "type": "function"
    }
  ],
  "bytecode": "0x61189e61003a600b82828239805160001a60731461002d57634e487b7160e01b600052600060045260246000fd5b30600052607381538281f3fe73000000000000000000000000000000000000000030146080604052600436106100405760003560e01c8063990f128114610045578063a704ab3a1461006e575b600080fd5b61005861005336600461075d565b610081565b60405161006591906107f0565b60405180910390f35b61005861007c366004610823565b6101ea565b6060600061008e87610343565b60405160200161009e9190610890565b604051602081830303815290604052836001600160a01b03166306fdde036040518163ffffffff1660e01b815260040160006040518083038186803b1580156100e657600080fd5b505afa1580156100fa573d6000803e3d6000fd5b505050506040513d6000823e601f3d908101601f191682016040526101229190810190610bec565b610136856001600160a01b03166014610448565b61013f8b610343565b60405160200161015193929190610dbf565b60408051601f198184030181529082905261016f9291602001610ec5565b6040516020818303038152906040529050600061018b8a610343565b610194836105ee565b61019d89610343565b6101af6101aa8a8c610f0a565b610343565b6101b88c610343565b6040516020016101cc959493929190610f88565b60408051808303601f190181529190529a9950505050505050505050565b60606000826001600160a01b03166306fdde036040518163ffffffff1660e01b815260040160006040518083038186803b15801561022757600080fd5b505afa15801561023b573d6000803e3d6000fd5b505050506040513d6000823e601f3d908101601f191682016040526102639190810190610bec565b61026c88610343565b60405160200161027d9291906111a3565b6040516020818303038152906040526102a0846001600160a01b03166014610448565b6102a988610343565b6040516020016102ba92919061147a565b60408051601f19818403018152908290526102d89291602001610ec5565b604051602081830303815290604052905060006102f489610343565b6102fd836105ee565b61030688610343565b6103136101aa898b610f0a565b6040516020016103269493929190611535565b60408051808303601f190181529190529998505050505050505050565b6060816103675750506040805180820190915260018152600360fc1b602082015290565b8160005b8115610391578061037b816116ac565b915061038a9050600a836116dd565b915061036b565b6000816001600160401b038111156103ab576103ab610bd6565b6040519080825280601f01601f1916602001820160405280156103d5576020820181803683370190505b5090505b8415610440576103ea6001836116f1565b91506103f7600a86611708565b610402906030610f0a565b60f81b8183815181106104175761041761171c565b60200101906001600160f81b031916908160001a905350610439600a866116dd565b94506103d9565b949350505050565b60606000610457836002611732565b610462906002610f0a565b6001600160401b0381111561047957610479610bd6565b6040519080825280601f01601f1916602001820160405280156104a3576020820181803683370190505b509050600360fc1b816000815181106104be576104be61171c565b60200101906001600160f81b031916908160001a905350600f60fb1b816001815181106104ed576104ed61171c565b60200101906001600160f81b031916908160001a9053506000610511846002611732565b61051c906001610f0a565b90505b6001811115610594576f181899199a1a9b1b9c1cb0b131b232b360811b85600f16601081106105505761055061171c565b1a60f81b8282815181106105665761056661171c565b60200101906001600160f81b031916908160001a90535060049490941c9361058d81611751565b905061051f565b5083156105e75760405162461bcd60e51b815260206004820181905260248201527f537472696e67733a20686578206c656e67746820696e73756666696369656e74604482015260640160405180910390fd5b9392505050565b606081516000141561060e57505060408051602081019091526000815290565b60006040518060600160405280604081526020016117a9604091399050600060038451600261063d9190610f0a565b61064791906116dd565b610652906004611732565b6001600160401b0381111561066957610669610bd6565b6040519080825280601f01601f191660200182016040528015610693576020820181803683370190505b509050600182016020820185865187015b808210156106ff576003820191508151603f8160121c168501518453600184019350603f81600c1c168501518453600184019350603f8160061c168501518453600184019350603f81168501518453506001830192506106a4565b505060038651066001811461071b576002811461072e57610736565b603d6001830353603d6002830353610736565b603d60018303535b509195945050505050565b80356001600160a01b038116811461075857600080fd5b919050565b600080600080600080600060e0888a03121561077857600080fd5b87359650602088013595506040880135945060608801359350608088013592506107a460a08901610741565b91506107b260c08901610741565b905092959891949750929550565b60005b838110156107db5781810151838201526020016107c3565b838111156107ea576000848401525b50505050565b602081526000825180602084015261080f8160408501602087016107c0565b601f01601f19169190910160400192915050565b60008060008060008060c0878903121561083c57600080fd5b863595506020870135945060408701359350606087013592506080870135915061086860a08801610741565b90509295509295509295565b600081516108868185602086016107c0565b9290920192915050565b6000805160206117e983398151915281527f30302f7376672720786d6c6e733a786c696e6b3d27687474703a2f2f7777772e60208201527f77332e6f72672f313939392f786c696e6b272066696c6c3d272366666627207660408201527f696577426f783d273020302034383620333030273e3c7265637420776964746860608201527f3d273438352e3427206865696768743d27333030272066696c6c3d272366666660808201527f272072783d273132272f3e3c726563742077696474683d273438352e3427206860a08201527f65696768743d27333030272066696c6c3d2775726c28236129272072783d273160c08201527f32272f3e3c746578742066696c6c3d27233541363438302720666f6e742d666160e08201527f6d696c793d27506f7070696e732720666f6e742d73697a653d2731362720666f6101008201527f6e742d7765696768743d27343030273e3c747370616e20783d2732382720793d6101208201527f273430273e5969656c64204e46543c2f747370616e3e3c747370616e20783d276101408201526c1a191813903c9e93989b98139f60991b610160820152644d4154494360d81b61016d8201526000805160206118298339815191526101728201526000805160206118098339815191526101928201527f653d2732342720666f6e742d7765696768743d27393030273e3c747370616e206101b28201527f783d2732382720793d27313335273e436c61696d61626c652046756e64733c2f6101d28201527f747370616e3e3c2f746578743e3c746578742066696c6c3d27233541363438306101f28201527f2720666f6e742d66616d696c793d27496e7465722720666f6e742d73697a653d6102128201527f2731362720666f6e742d7765696768743d273930302720746578742d616e63686102328201527f6f723d27656e64273e3c747370616e20783d273431352720793d27313730273e61025282015260006105e7610b6d610272840185610874565b600080516020611789833981519152815260008051602061176983398151915260208201527f653d2731302720666f6e742d7765696768743d27393030273e3c747370616e2060408201526e3c1e93991c13903c9e93991b98139f60891b6060820152606f0190565b634e487b7160e01b600052604160045260246000fd5b600060208284031215610bfe57600080fd5b81516001600160401b0380821115610c1557600080fd5b818401915084601f830112610c2957600080fd5b815181811115610c3b57610c3b610bd6565b604051601f8201601f19908116603f01168101908382118183101715610c6357610c63610bd6565b81604052828152876020848701011115610c7c57600080fd5b610c8d8360208301602088016107c0565b979650505050505050565b7f3c2f747370616e3e3c2f746578743e3c646566733e3c6c696e6561724772616481527f69656e742069643d2761272078313d2730272078323d27333739272079313d2760208201527f3936272079323d2733353327206772616469656e74556e6974733d277573657260408201527f53706163654f6e557365273e3c73746f702073746f702d636f6c6f723d27233760608201527f4442434646272073746f702d6f7061636974793d272e31272f3e3c73746f702060808201527f6f66667365743d2731272073746f702d636f6c6f723d2723464637444330272060a08201527f73746f702d6f7061636974793d272e31272f3e3c2f6c696e656172477261646960c08201527032b73a1f1e17b232b3399f1e17b9bb339f60791b60e082015260f10190565b60008451610dd18184602089016107c0565b808301905060008051602061178983398151915280825260008051602061176983398151915280602084015260008051602061184983398151915260408401526e3c1e93991c13903c9e93991c19939f60891b60608401528651610e3c81606f860160208b016107c0565b606f930192830191909152608f8201527f653d2731302720666f6e742d7765696768743d273430302720746578742d616e60af8201527f63686f723d27656e64273e3c747370616e20783d273436332720793d2732373060cf82015262273e2360e81b60ef8201528351610eb78160f28401602088016107c0565b610c8d60f282840101610c98565b60008351610ed78184602088016107c0565b835190830190610eeb8183602088016107c0565b01949350505050565b634e487b7160e01b600052601160045260246000fd5b60008219821115610f1d57610f1d610ef4565b500190565b7f222c202261747472696275746573223a5b7b22646973706c61795f747970652281527f3a202264617465222c202274726169745f74797065223a20225374617274446160208201526d3a32911610113b30b63ab2911d1160911b6040820152604e0190565b737b226e616d65223a20227969656c644e4654202360601b81528551600090610fb8816014850160208b016107c0565b7f202d2052696c617363696f222c20226465736372697074696f6e223a202259696014918401918201527f656c644e465420726570726573656e74732052656e74616c204665652064657060348201527f6f736974656420627920426f72726f77657220696e20612052696c617363696f60548201527f20457363726f772e20546865206f776e6572206f662074686973204e4654206360748201527f616e20636c61696d2072656e74616c20666565206166746572206c6f636b2d7460948201527f696d652065787069726564206279206275726e20746869732e222c2022696d6160b48201527f6765223a2022646174613a696d6167652f7376672b786d6c3b6261736536342c60d48201526111976111876111816111486111426110f36110ed6110e860f489018f610874565b610f22565b8c610874565b7f227d2c7b22646973706c61795f74797065223a202264617465222c202274726181527f69745f74797065223a2245787069726544617465222c202276616c7565223a22602082015260400190565b89610874565b7f227d2c7b2274726169745f74797065223a22466565416d6f756e74222c20227681526630b63ab2911d1160c91b602082015260270190565b86610874565b63227d5d7d60e01b815260040190565b98975050505050505050565b6000805160206117e983398151915281527f30302f737667272066696c6c3d2723666666272076696577426f783d2730203060208201527f2034383620333030273e3c726563742077696474683d273438352e342720686560408201527f696768743d27333030272066696c6c3d2723666666272072783d273132272f3e60608201527f3c726563742077696474683d273438352e3427206865696768743d273330302760808201527f2066696c6c3d2775726c28236129272072783d273132272f3e3c74657874206660a08201527f696c6c3d27233541363438302720666f6e742d66616d696c793d27506f70706960c08201527f6e732720666f6e742d73697a653d2731362720666f6e742d7765696768743d2760e08201527f343030273e3c747370616e20783d2732382720793d273430273e4f776e6572736101008201527f686970204e46543c2f747370616e3e3c747370616e20783d273235302720793d6101208201527f27323730273e556e74696c20556e6c6f636b3c2f747370616e3e3c747370616e6101408201527f20783d273433302720793d27323730273e4461793c2f747370616e3e3c2f74656101608201527f78743e3c746578742066696c6c3d27233541363438302720666f6e742d66616d6101808201527f696c793d27496e7465722720666f6e742d73697a653d2733322720666f6e742d6101a08201527f7765696768743d27393030273e3c747370616e20783d2732382720793d2731356101c08201526218139f60e91b6101e082015260006104406114746113f26101e3850187610874565b600080516020611829833981519152815260008051602061180983398151915260208201527f653d2733362720666f6e742d7765696768743d273930302720746578742d616e60408201527f63686f723d27656e64273e3c747370616e20783d273432352720793d27323730606082015261139f60f11b608082015260820190565b84610874565b60006000805160206117898339815191528083526000805160206117698339815191528060208501526000805160206118498339815191528060408601526e3c1e93991c13903c9e93989b98139f60891b606086015286516114e381606f880160208b016107c0565b808601905083606f82015282608f8201528160af8201526e3c1e93991c13903c9e93989c1a939f60891b60cf820152865193506115278460de830160208a016107c0565b61119760de85830101610c98565b777b226e616d65223a20224f776e6572736869704e4654202360401b81528451600090611569816018850160208a016107c0565b7f202d2052696c617363696f222c20226465736372697074696f6e223a20224f776018918401918201527f6e6572736869704e465420726570726573656e7473204f726967696e616c204e60388201527f4654206c6f636b656420696e20612052696c617363696f20457363726f772e2060588201527f546865206f776e6572206f662074686973204e46542063616e20636c61696d2060788201527f6f726967696e616c204e4654206166746572206c6f636b2d74696d652065787060988201527f69726564206279206275726e20746869732e222c2022696d616765223a20226460b882015278185d184e9a5b5859d94bdcdd99cade1b5b0ed8985cd94d8d0b603a1b60d882015285516116868160f1840160208a016107c0565b6111976111876116a66110f36116a060f186880101610f22565b8a610874565b87610874565b60006000198214156116c0576116c0610ef4565b5060010190565b634e487b7160e01b600052601260045260246000fd5b6000826116ec576116ec6116c7565b500490565b60008282101561170357611703610ef4565b500390565b600082611717576117176116c7565b500690565b634e487b7160e01b600052603260045260246000fd5b600081600019048311821515161561174c5761174c610ef4565b500290565b60008161176057611760610ef4565b50600019019056fe42452720666f6e742d66616d696c793d27496e7465722720666f6e742d73697a3c2f747370616e3e3c2f746578743e3c746578742066696c6c3d2723393841414142434445464748494a4b4c4d4e4f505152535455565758595a6162636465666768696a6b6c6d6e6f707172737475767778797a303132333435363738392b2f3c73766720786d6c6e733d27687474703a2f2f7777772e77332e6f72672f323038302720666f6e742d66616d696c793d27496e7465722720666f6e742d73697a3c2f747370616e3e3c2f746578743e3c746578742066696c6c3d272335413634653d2731302720666f6e742d7765696768743d27343030273e3c747370616e20a26469706673582212202a1fb0c9417e5520ea34dcd34f6a8c6a54648791306433a654dd5676c308732264736f6c63430008090033",
  "linkReferences": {},
  "deployedLinkReferences": {}
}