{
  "_format": "hh-sol-artifact-1",
  "contractName": "TEST1155",
  "sourceName": "contracts/test/NFT1155.sol",
  "abi": [
    {
      "inputs": [],
      "stateMutability": "nonpayable",
      "type": "constructor"
    },
    {
      "anonymous": false,
      "inputs": [
        {
          "indexed": true,
          "internalType": "address",
          "name": "account",
          "type": "address"
        },
        {
          "indexed": true,
          "internalType": "address",
          "name": "operator",
          "type": "address"
        },
        {
          "indexed": false,
          "internalType": "bool",
          "name": "approved",
          "type": "bool"
        }
      ],
      "name": "ApprovalForAll",
      "type": "event"
    },
    {
      "anonymous": false,
      "inputs": [
        {
          "indexed": true,
          "internalType": "address",
          "name": "operator",
          "type": "address"
        },
        {
          "indexed": true,
          "internalType": "address",
          "name": "from",
          "type": "address"
        },
        {
          "indexed": true,
          "internalType": "address",
          "name": "to",
          "type": "address"
        },
        {
          "indexed": false,
          "internalType": "uint256[]",
          "name": "ids",
          "type": "uint256[]"
        },
        {
          "indexed": false,
          "internalType": "uint256[]",
          "name": "values",
          "type": "uint256[]"
        }
      ],
      "name": "TransferBatch",
      "type": "event"
    },
    {
      "anonymous": false,
      "inputs": [
        {
          "indexed": true,
          "internalType": "address",
          "name": "operator",
          "type": "address"
        },
        {
          "indexed": true,
          "internalType": "address",
          "name": "from",
          "type": "address"
        },
        {
          "indexed": true,
          "internalType": "address",
          "name": "to",
          "type": "address"
        },
        {
          "indexed": false,
          "internalType": "uint256",
          "name": "id",
          "type": "uint256"
        },
        {
          "indexed": false,
          "internalType": "uint256",
          "name": "value",
          "type": "uint256"
        }
      ],
      "name": "TransferSingle",
      "type": "event"
    },
    {
      "anonymous": false,
      "inputs": [
        {
          "indexed": false,
          "internalType": "string",
          "name": "value",
          "type": "string"
        },
        {
          "indexed": true,
          "internalType": "uint256",
          "name": "id",
          "type": "uint256"
        }
      ],
      "name": "URI",
      "type": "event"
    },
    {
      "inputs": [
        {
          "internalType": "address",
          "name": "account",
          "type": "address"
        },
        {
          "internalType": "uint256",
          "name": "id",
          "type": "uint256"
        }
      ],
      "name": "balanceOf",
      "outputs": [
        {
          "internalType": "uint256",
          "name": "",
          "type": "uint256"
        }
      ],
      "stateMutability": "view",
      "type": "function"
    },
    {
      "inputs": [
        {
          "internalType": "address[]",
          "name": "accounts",
          "type": "address[]"
        },
        {
          "internalType": "uint256[]",
          "name": "ids",
          "type": "uint256[]"
        }
      ],
      "name": "balanceOfBatch",
      "outputs": [
        {
          "internalType": "uint256[]",
          "name": "",
          "type": "uint256[]"
        }
      ],
      "stateMutability": "view",
      "type": "function"
    },
    {
      "inputs": [
        {
          "internalType": "address",
          "name": "account",
          "type": "address"
        },
        {
          "internalType": "address",
          "name": "operator",
          "type": "address"
        }
      ],
      "name": "isApprovedForAll",
      "outputs": [
        {
          "internalType": "bool",
          "name": "",
          "type": "bool"
        }
      ],
      "stateMutability": "view",
      "type": "function"
    },
    {
      "inputs": [
        {
          "internalType": "uint256",
          "name": "_tokenId",
          "type": "uint256"
        },
        {
          "internalType": "uint256",
          "name": "_amount",
          "type": "uint256"
        }
      ],
      "name": "mint",
      "outputs": [],
      "stateMutability": "nonpayable",
      "type": "function"
    },
    {
      "inputs": [],
      "name": "name",
      "outputs": [
        {
          "internalType": "string",
          "name": "",
          "type": "string"
        }
      ],
      "stateMutability": "view",
      "type": "function"
    },
    {
      "inputs": [
        {
          "internalType": "address",
          "name": "from",
          "type": "address"
        },
        {
          "internalType": "address",
          "name": "to",
          "type": "address"
        },
        {
          "internalType": "uint256[]",
          "name": "ids",
          "type": "uint256[]"
        },
        {
          "internalType": "uint256[]",
          "name": "amounts",
          "type": "uint256[]"
        },
        {
          "internalType": "bytes",
          "name": "data",
          "type": "bytes"
        }
      ],
      "name": "safeBatchTransferFrom",
      "outputs": [],
      "stateMutability": "nonpayable",
      "type": "function"
    },
    {
      "inputs": [
        {
          "internalType": "address",
          "name": "from",
          "type": "address"
        },
        {
          "internalType": "address",
          "name": "to",
          "type": "address"
        },
        {
          "internalType": "uint256",
          "name": "id",
          "type": "uint256"
        },
        {
          "internalType": "uint256",
          "name": "amount",
          "type": "uint256"
        },
        {
          "internalType": "bytes",
          "name": "data",
          "type": "bytes"
        }
      ],
      "name": "safeTransferFrom",
      "outputs": [],
      "stateMutability": "nonpayable",
      "type": "function"
    },
    {
      "inputs": [
        {
          "internalType": "address",
          "name": "operator",
          "type": "address"
        },
        {
          "internalType": "bool",
          "name": "approved",
          "type": "bool"
        }
      ],
      "name": "setApprovalForAll",
      "outputs": [],
      "stateMutability": "nonpayable",
      "type": "function"
    },
    {
      "inputs": [
        {
          "internalType": "bytes4",
          "name": "interfaceId",
          "type": "bytes4"
        }
      ],
      "name": "supportsInterface",
      "outputs": [
        {
          "internalType": "bool",
          "name": "",
          "type": "bool"
        }
      ],
      "stateMutability": "view",
      "type": "function"
    },
    {
      "inputs": [],
      "name": "symbol",
      "outputs": [
        {
          "internalType": "string",
          "name": "",
          "type": "string"
        }
      ],
      "stateMutability": "view",
      "type": "function"
    },
    {
      "inputs": [
        {
          "internalType": "uint256",
          "name": "",
          "type": "uint256"
        }
      ],
      "name": "uri",
      "outputs": [
        {
          "internalType": "string",
          "name": "",
          "type": "string"
        }
      ],
      "stateMutability": "view",
      "type": "function"
    }
  ],
  "bytecode": "0x60806040523480156200001157600080fd5b506040805160208101909152600081526200002c8162000033565b506200012f565b8051620000489060029060208401906200004c565b5050565b8280546200005a90620000f2565b90600052602060002090601f0160209004810192826200007e5760008555620000c9565b82601f106200009957805160ff1916838001178555620000c9565b82800160010185558215620000c9579182015b82811115620000c9578251825591602001919060010190620000ac565b50620000d7929150620000db565b5090565b5b80821115620000d75760008155600101620000dc565b600181811c908216806200010757607f821691505b602082108114156200012957634e487b7160e01b600052602260045260246000fd5b50919050565b611613806200013f6000396000f3fe608060405234801561001057600080fd5b50600436106100985760003560e01c8062fdd58e1461009d57806301ffc9a7146100c357806306fdde03146100e65780630e89341c146100fb5780631b2ef1ca1461010e5780632eb2c2d6146101235780634e1273f41461013657806395d89b4114610156578063a22cb4651461015e578063e985e9c514610171578063f242432a146101ad575b600080fd5b6100b06100ab366004610dda565b6101c0565b6040519081526020015b60405180910390f35b6100d66100d1366004610e1d565b610257565b60405190151581526020016100ba565b6100ee6102a9565b6040516100ba9190610e8e565b6100ee610109366004610ea1565b610337565b61012161011c366004610eba565b6103cb565b005b610121610131366004611025565b6103ea565b6101496101443660046110ce565b610481565b6040516100ba91906111d3565b6100ee6105aa565b61012161016c3660046111e6565b6105b7565b6100d661017f366004611222565b6001600160a01b03918216600090815260016020908152604080832093909416825291909152205460ff1690565b6101216101bb366004611255565b6105c2565b60006001600160a01b0383166102315760405162461bcd60e51b815260206004820152602b60248201527f455243313135353a2062616c616e636520717565727920666f7220746865207a60448201526a65726f206164647265737360a81b60648201526084015b60405180910390fd5b506000908152602081815260408083206001600160a01b03949094168352929052205490565b60006001600160e01b03198216636cdb3d1360e11b148061028857506001600160e01b031982166303a24d0760e21b145b806102a357506301ffc9a760e01b6001600160e01b03198316145b92915050565b600480546102b6906112b9565b80601f01602080910402602001604051908101604052809291908181526020018280546102e2906112b9565b801561032f5780601f106103045761010080835404028352916020019161032f565b820191906000526020600020905b81548152906001019060200180831161031257829003601f168201915b505050505081565b606060028054610346906112b9565b80601f0160208091040260200160405190810160405280929190818152602001828054610372906112b9565b80156103bf5780601f10610394576101008083540402835291602001916103bf565b820191906000526020600020905b8154815290600101906020018083116103a257829003601f168201915b50505050509050919050565b6103e633838360405180602001604052806000815250610649565b5050565b6001600160a01b0385163314806104065750610406853361017f565b61046d5760405162461bcd60e51b815260206004820152603260248201527f455243313135353a207472616e736665722063616c6c6572206973206e6f74206044820152711bdddb995c881b9bdc88185c1c1c9bdd995960721b6064820152608401610228565b61047a858585858561074b565b5050505050565b606081518351146104e65760405162461bcd60e51b815260206004820152602960248201527f455243313135353a206163636f756e747320616e6420696473206c656e677468604482015268040dad2e6dac2e8c6d60bb1b6064820152608401610228565b600083516001600160401b0381111561050157610501610edc565b60405190808252806020026020018201604052801561052a578160200160208202803683370190505b50905060005b84518110156105a25761057585828151811061054e5761054e6112f4565b6020026020010151858381518110610568576105686112f4565b60200260200101516101c0565b828281518110610587576105876112f4565b602090810291909101015261059b81611320565b9050610530565b509392505050565b600580546102b6906112b9565b6103e6338383610928565b6001600160a01b0385163314806105de57506105de853361017f565b61063c5760405162461bcd60e51b815260206004820152602960248201527f455243313135353a2063616c6c6572206973206e6f74206f776e6572206e6f7260448201526808185c1c1c9bdd995960ba1b6064820152608401610228565b61047a8585858585610a09565b6001600160a01b0384166106a95760405162461bcd60e51b815260206004820152602160248201527f455243313135353a206d696e7420746f20746865207a65726f206164647265736044820152607360f81b6064820152608401610228565b3360006106b585610b21565b905060006106c285610b21565b90506000868152602081815260408083206001600160a01b038b168452909152812080548792906106f490849061133b565b909155505060408051878152602081018790526001600160a01b03808a1692600092918716916000805160206115be833981519152910160405180910390a461074283600089898989610b6c565b50505050505050565b81518351146107ad5760405162461bcd60e51b815260206004820152602860248201527f455243313135353a2069647320616e6420616d6f756e7473206c656e677468206044820152670dad2e6dac2e8c6d60c31b6064820152608401610228565b6001600160a01b0384166107d35760405162461bcd60e51b815260040161022890611353565b3360005b84518110156108ba5760008582815181106107f4576107f46112f4565b602002602001015190506000858381518110610812576108126112f4565b602090810291909101810151600084815280835260408082206001600160a01b038e1683529093529190912054909150818110156108625760405162461bcd60e51b815260040161022890611398565b6000838152602081815260408083206001600160a01b038e8116855292528083208585039055908b1682528120805484929061089f90849061133b565b92505081905550505050806108b390611320565b90506107d7565b50846001600160a01b0316866001600160a01b0316826001600160a01b03167f4a39dc06d4c0dbc64b70af90fd698a233a518aa5d07e595d983b8c0526c8f7fb878760405161090a9291906113e2565b60405180910390a4610920818787878787610cde565b505050505050565b816001600160a01b0316836001600160a01b0316141561099c5760405162461bcd60e51b815260206004820152602960248201527f455243313135353a2073657474696e6720617070726f76616c20737461747573604482015268103337b91039b2b63360b91b6064820152608401610228565b6001600160a01b03838116600081815260016020908152604080832094871680845294825291829020805460ff191686151590811790915591519182527f17307eab39ab6107e8899845ad3d59bd9653f200f220920489ca2b5937696c31910160405180910390a3505050565b6001600160a01b038416610a2f5760405162461bcd60e51b815260040161022890611353565b336000610a3b85610b21565b90506000610a4885610b21565b90506000868152602081815260408083206001600160a01b038c16845290915290205485811015610a8b5760405162461bcd60e51b815260040161022890611398565b6000878152602081815260408083206001600160a01b038d8116855292528083208985039055908a16825281208054889290610ac890849061133b565b909155505060408051888152602081018890526001600160a01b03808b16928c821692918816916000805160206115be833981519152910160405180910390a4610b16848a8a8a8a8a610b6c565b505050505050505050565b60408051600180825281830190925260609160009190602080830190803683370190505090508281600081518110610b5b57610b5b6112f4565b602090810291909101015292915050565b610b7e846001600160a01b0316610daf565b156109205760405163f23a6e6160e01b81526001600160a01b0385169063f23a6e6190610bb79089908990889088908890600401611410565b602060405180830381600087803b158015610bd157600080fd5b505af1925050508015610c01575060408051601f3d908101601f19168201909252610bfe91810190611455565b60015b610cae57610c0d611472565b806308c379a01415610c475750610c2261148e565b80610c2d5750610c49565b8060405162461bcd60e51b81526004016102289190610e8e565b505b60405162461bcd60e51b815260206004820152603460248201527f455243313135353a207472616e7366657220746f206e6f6e20455243313135356044820152732932b1b2b4bb32b91034b6b83632b6b2b73a32b960611b6064820152608401610228565b6001600160e01b0319811663f23a6e6160e01b146107425760405162461bcd60e51b815260040161022890611517565b610cf0846001600160a01b0316610daf565b156109205760405163bc197c8160e01b81526001600160a01b0385169063bc197c8190610d29908990899088908890889060040161155f565b602060405180830381600087803b158015610d4357600080fd5b505af1925050508015610d73575060408051601f3d908101601f19168201909252610d7091810190611455565b60015b610d7f57610c0d611472565b6001600160e01b0319811663bc197c8160e01b146107425760405162461bcd60e51b815260040161022890611517565b6001600160a01b03163b151590565b80356001600160a01b0381168114610dd557600080fd5b919050565b60008060408385031215610ded57600080fd5b610df683610dbe565b946020939093013593505050565b6001600160e01b031981168114610e1a57600080fd5b50565b600060208284031215610e2f57600080fd5b8135610e3a81610e04565b9392505050565b6000815180845260005b81811015610e6757602081850181015186830182015201610e4b565b81811115610e79576000602083870101525b50601f01601f19169290920160200192915050565b602081526000610e3a6020830184610e41565b600060208284031215610eb357600080fd5b5035919050565b60008060408385031215610ecd57600080fd5b50508035926020909101359150565b634e487b7160e01b600052604160045260246000fd5b601f8201601f191681016001600160401b0381118282101715610f1757610f17610edc565b6040525050565b60006001600160401b03821115610f3757610f37610edc565b5060051b60200190565b600082601f830112610f5257600080fd5b81356020610f5f82610f1e565b604051610f6c8282610ef2565b83815260059390931b8501820192828101915086841115610f8c57600080fd5b8286015b84811015610fa75780358352918301918301610f90565b509695505050505050565b600082601f830112610fc357600080fd5b81356001600160401b03811115610fdc57610fdc610edc565b604051610ff3601f8301601f191660200182610ef2565b81815284602083860101111561100857600080fd5b816020850160208301376000918101602001919091529392505050565b600080600080600060a0868803121561103d57600080fd5b61104686610dbe565b945061105460208701610dbe565b935060408601356001600160401b038082111561107057600080fd5b61107c89838a01610f41565b9450606088013591508082111561109257600080fd5b61109e89838a01610f41565b935060808801359150808211156110b457600080fd5b506110c188828901610fb2565b9150509295509295909350565b600080604083850312156110e157600080fd5b82356001600160401b03808211156110f857600080fd5b818501915085601f83011261110c57600080fd5b8135602061111982610f1e565b6040516111268282610ef2565b83815260059390931b850182019282810191508984111561114657600080fd5b948201945b8386101561116b5761115c86610dbe565b8252948201949082019061114b565b9650508601359250508082111561118157600080fd5b5061118e85828601610f41565b9150509250929050565b600081518084526020808501945080840160005b838110156111c8578151875295820195908201906001016111ac565b509495945050505050565b602081526000610e3a6020830184611198565b600080604083850312156111f957600080fd5b61120283610dbe565b91506020830135801515811461121757600080fd5b809150509250929050565b6000806040838503121561123557600080fd5b61123e83610dbe565b915061124c60208401610dbe565b90509250929050565b600080600080600060a0868803121561126d57600080fd5b61127686610dbe565b945061128460208701610dbe565b9350604086013592506060860135915060808601356001600160401b038111156112ad57600080fd5b6110c188828901610fb2565b600181811c908216806112cd57607f821691505b602082108114156112ee57634e487b7160e01b600052602260045260246000fd5b50919050565b634e487b7160e01b600052603260045260246000fd5b634e487b7160e01b600052601160045260246000fd5b60006000198214156113345761133461130a565b5060010190565b6000821982111561134e5761134e61130a565b500190565b60208082526025908201527f455243313135353a207472616e7366657220746f20746865207a65726f206164604082015264647265737360d81b606082015260800190565b6020808252602a908201527f455243313135353a20696e73756666696369656e742062616c616e636520666f60408201526939103a3930b739b332b960b11b606082015260800190565b6040815260006113f56040830185611198565b82810360208401526114078185611198565b95945050505050565b6001600160a01b03868116825285166020820152604081018490526060810183905260a06080820181905260009061144a90830184610e41565b979650505050505050565b60006020828403121561146757600080fd5b8151610e3a81610e04565b600060033d111561148b5760046000803e5060005160e01c5b90565b600060443d101561149c5790565b6040516003193d81016004833e81513d6001600160401b0380831160248401831017156114cb57505050505090565b82850191508151818111156114e35750505050505090565b843d87010160208285010111156114fd5750505050505090565b61150c60208286010187610ef2565b509095945050505050565b60208082526028908201527f455243313135353a204552433131353552656365697665722072656a656374656040820152676420746f6b656e7360c01b606082015260800190565b6001600160a01b0386811682528516602082015260a06040820181905260009061158b90830186611198565b828103606084015261159d8186611198565b905082810360808401526115b18185610e41565b9897505050505050505056fec3d58168c5ae7397731d063d5bbf3d657854427343f4c083240f7aacaa2d0f62a264697066735822122044a23f21e587bcfdc6d10558bcf554da53b4ee4e4b7055d28241550ea719b0a964736f6c63430008090033",
  "linkReferences": {},
  "deployedLinkReferences": {}
}